:100000000C94D6000C94FC000C94FC000C94FC00A6
:100010000C94FC000C94FC000C94FC000C94690300
:100020000C94FC000C9439030C94BD0F0C94FC0050
:100030000C94FC000C94FC000C94FC000C94FC0050
:100040000C94FC000C94FC000C944B100C94FC00E1
:100050000C94FC000C94FC000C94FC000C94FC0030
:100060000C94FC000C94FC00010A0E040804080423
:10007000080F14000F1400010002020909190209F7
:1000800002090010102020010100020209091902D2
:10009000090209000000000001010003030809141F
:1000A00003080207001015252501010004040D0FA7
:1000B00026040D040D0C18000C18010100050108A0
:1000C00005140108010700101C2830010100070772
:1000D0000B070B010101010207070D0D00000108CC
:1000E000010410160104060A0005050F0F010000A7
:1000F000090306030601010101050D0D1515000098
:10010000030D0A110205030709110000000A0A0184
:1001100000000F03070307010101010000010B119B
:100120000001030102030405060708090A0C0E106A
:100130001215181C20252A30373F4853606F8199CB
:10014000B6D8FF807B1300180019000A000B0009C5
:10015000001500000001001E00030002000400055D
:100160000006000700450052001300130008001F9E
:100170000000001F0000001F1F1F1F0000000000E4
:100180000101010100000506070808090A0B0C0D12
:100190000D0E0F1011121213141516171718191A25
:1001A0001B1C1C1D1E1F010000800C6914BE88E171
:1001B0000FB6F89480936000109260000FBE112477
:1001C0001FBECFEFD4E0DEBFCDBF11E0A0E0B1E0B5
:1001D000E4E3F0E302C005900D92AE35B107D9F724
:1001E00012E0AEE5B1E001C01D92A338B107E1F71E
:1001F0000E946E0C0C9418180C940000282F229565
:100200002F709AE0299F900111248F70820F08951A
:10021000382F8DEC389FC0011124292F2695269563
:10022000269586EF9FEF289F802D1124830F22951E
:10023000207F822B0895FB01138290E291839083AB
:100240006DEC869F90011124369536953695805D2C
:1002500046EF5FEF349F902D1124980F9283332344
:1002600081F0369FC0011124969596959695305D44
:10027000949F802D1124830F8183992311F0905D29
:1002800090830895382FFB0112828DEC389FC001B6
:100290001124292F26952695269511F480E202C077
:1002A000822F805D8083305D86EF9FEF289F802DB9
:1002B0001124830F8183089510926201E0E6F1E03A
:1002C000119210926301108210926A0180911702BC
:1002D0008160809317021092640110926501109260
:1002E00066011092670110926801109269010895E9
:1002F00027982F98549A5C98809117028D7F84607C
:10030000809317020E945C0110926B010895209166
:10031000170222FF6FC021FD57C01F9906C08091B0
:100320006C018F5F80936C0105C080916D018F5FC0
:1003300080936D0140916C0130916D01842F90E0AC
:10034000830F911D843691050CF454C0442311F0A1
:100350003323C9F480915F018F5F80935F01843103
:1003600071F510925F0180915E018F5F80935E0155
:100370001F9B02C02F9801C02F9A8E3101F52F9A32
:1003800022602B7F1AC080915F018F5F80935F0195
:100390008E3121F42660209317020895822F8870F1
:1003A000341730F4882359F010925F01277F05C07D
:1003B000882329F410925F0128602093170210927D
:1003C0006C0110926D01089580911602882391F0BE
:1003D00023FF03C01F9B0AC002C01F9907C0809162
:1003E00060018F5F809360015C9808952160209385
:1003F00017025C9A0895FC01809117028570853080
:1004000011F080E00895809160018730F8F08091CC
:1004100060018E3420F4809160018036B8F48091C0
:1004200060018A3A28F0809161018A3309F094C012
:10043000809161018B3308F08FC08091610185311B
:1004400040F4809161018F5F80936101109260019F
:1004500085C0809160018E3408F455C080916001A0
:10046000803608F050C0809160018735F0F48091AB
:1004700062018F5F80936201809161018C31A9F0EC
:1004800080916101833289F0A0916A01B0E0A05AA5
:10049000BE4F14969C911497E0916301F0E0E050F8
:1004A000FF4F8081980F14969C93809163018F5F1A
:1004B00080936301809161018C3121F08091610111
:1004C000833221F48091620180FD46C080916101F8
:1004D0008C3189F080916101833269F080916101F2
:1004E000893249F0809161018C3229F0809161015B
:1004F000813309F0A6CF80916A018F5F80936A01F2
:10050000109263019ECF809160018A3A38F1809108
:1005100060018B3B28F4809162018F5F80936201C0
:10052000809161018A33C1F48091620180FD14C021
:1005300040916401809165012CE3829FC0011124E8
:10054000480F80916B0190E00196242F30E08217D4
:10055000930759F040936B010E945C018091170250
:100560008E7F8093170280E0089515828091640148
:100570008483809165018383809166018283809169
:1005800067018683809168018183809169018083FE
:100590000E945C01109216025C9881E0089510920E
:1005A0007701109278011092790110927A012091CE
:1005B000730130917401409175015091760120933F
:1005C0006F013093700140937101509372016093F9
:1005D00073017093740180937501909376018FE19C
:1005E00080931802E0911802F0E0ED5DFE4FE49177
:1005F000E33010F48FEF08C0E0911802F0E0ED5DF9
:10060000FE4FE49182E08E1B8093B3000895209109
:100610007701309178014091790150917A0121154B
:1006200031054105510521F180911802882301F51A
:10063000809108018150809308018823C9F460915A
:100640007301709174018091750190917601622718
:1006500073278427952760937301709374018093A7
:100660007501909376010E943A0487E08093080117
:1006700008951F920F920FB60F9211242F933F935C
:100680004F935F936F937F938F939F93AF93BF939A
:10069000EF93FF9380911802882351F060917301CA
:1006A0007091740180917501909176010E943A04D5
:1006B000FF91EF91BF91AF919F918F917F916F913A
:1006C0005F914F913F912F910F900FBE0F901F9010
:1006D00018951F920F920FB60F9211242F933F93EC
:1006E0004F935F936F937F938F939F93AF93BF933A
:1006F000EF93FF9380911802823008F44AC0609112
:100700006F017091700180917101909172010E944E
:100710003A0490916E019F5F90936E01809119024F
:100720008823C9F09F3009F03EC010926E0180917D
:100730001802815080931802E0911802F0E0ED5DFC
:10074000FE4FE491E330C0F0E0911802F0E0ED5D7F
:10075000FE4FE49119C09E3131F510926E018091E7
:100760001802815080931802E0911802F0E0ED5DCC
:10077000FE4FE491E33010F48FEF08C0E0911802CF
:10078000F0E0ED5DFE4FE49182E08E1B8093B300BC
:100790000AC060917301709174018091750190910C
:1007A00076010E943A04FF91EF91BF91AF919F9122
:1007B0008F917F916F915F914F913F912F910F900A
:1007C0000FBE0F901F9018952623372348235923D7
:1007D00020937701309378014093790150937A0107
:1007E000209173013091740140917501509176010F
:1007F00020936F0130937001409371015093720107
:1008000060937301709374018093750190937601E6
:10081000109218020E943A040895682F80917B017B
:100820008F5F877080937B0180FF1DC0869590E06D
:10083000489621E030E040E050E004C0220F331F32
:10084000441F551F8A95D2F7662351F080910D0100
:1008500090910E01A0E0B0E0282B392B4A2B5B2BA6
:10086000CA01B90104C060E070E080E090E00E943D
:10087000CF020895EF92FF920F931F937B018C019B
:100880000E94850F10FF02C0289A01C0289811FF0E
:1008900002C05F9A01C05F9812FF02C0429A01C075
:1008A000429813FF02C0439A01C043981F910F91D1
:1008B000FF90EF9008950E949A0F209A579A3A9AC3
:1008C0003B9A28985F9842984398E0E7F0E080814F
:1008D0008360808308958F929F92AF92BF92CF9250
:1008E000DF92EF92FF920F931F93FC01838024818C
:1008F000822F65E00E94B617982E822F0E94B617AD
:10090000692F20915B0220FF0AC0992009F43FC0A3
:1009100086E0981631F0AA24BB24650107C099200F
:10092000B1F1A12C00E4B02EC12CD12C269530E0E1
:10093000492D50E08BE090E0289FF001299FF00DB9
:10094000389FF00D1124E40FF51FE05EFE4F80810B
:1009500090E0A0E0B0E08C01FF24EE24EA28FB2820
:100960000C291D2981E090E0092C02C0880F991FF5
:100970000A94E2F7220F331F235B3E4FF9012081D7
:10098000318182239323892B39F0839405C0E12C94
:10099000E0ECFE2E012D112D643010F0A8E001C016
:1009A000A0E0633008F0A460623008F0A26061113A
:1009B000A160882D6CE00E94B617E92FF0E0EE0FE1
:1009C000FF1FE75FFE4F808191819C0140E050E076
:1009D0002E293F29402B512B8A2F90E0A0E0B0E038
:1009E000B82FAA2799278827282B392B4A2B5B2B2E
:1009F000F1E08F1619F08DE0881619F4992009F4AA
:100A0000277FB901CA011F910F91FF90EF90DF90EE
:100A1000CF90BF90AF909F908F90089580917C0170
:100A2000882341F41092B90080E28093B80081E0FD
:100A300080937C0180E00895982FFB0184EA8093E5
:100A4000BC008091BC0087FFFCCF8091B900887FFB
:100A5000883011F0803181F49093BB0084E880935A
:100A6000BC008091BC0087FFFCCF8091B900887FDB
:100A7000883129F0803419F0808381E0089580E086
:100A80000895982F44EA34E824E94093BC0080910B
:100A9000BC0087FFFCCF8091B900887F883011F0BF
:100AA000803199F79093BB003093BC008091BC00DB
:100AB00087FFFCCF8091B900887F803211F08835A4
:100AC00039F42093BC008091BC0084FDFCCFDDCFC5
:100AD00008950E941C05089584E98093BC008091CC
:100AE000BC0084FDFCCF0895FB018093BB0084E82B
:100AF0008093BC008091BC0087FFFCCF8091B9003F
:100B0000887F883211F480E00895808381E0089521
:100B100084EC8093BC008091BC0087FFFCCF809167
:100B2000BB00089584E88093BC008091BC0087FFDF
:100B3000FCCF8091BB00089580917E010895EF92D3
:100B4000FF920F931F93CF93DF93182FF62EE72E6C
:100B5000042F80917D01882391F1442381F1812F1D
:100B600090E0840F911D813491054CF580ED0E9439
:100B70004105812F6EE771E00E9474058823D9F446
:100B800081ED6EE771E00E9469058823A1F4CF2D05
:100B9000DE2D102F7E0105C00E948805F70181938C
:100BA0007F011150C9F70E9492050150C00FD11D5D
:100BB000888311E001C010E00E946C0501C010E0C4
:100BC000812FDF91CF911F910F91FF90EF900895AA
:100BD000EF92FF920F931F93CF93DF93082FF62E80
:100BE000E72E142F80917D01882341F1442331F1B8
:100BF000802F90E0840F911D81349105FCF480EDED
:100C00000E944105802F6EE771E00E9474058823E1
:100C100089F48F2D9E2D9C01E90188816EE771E09A
:100C20000E9474051150882329F421961123A9F7F5
:100C300011E001C010E00E946C0501C010E0812F9E
:100C4000DF91CF911F910F91FF90EF900895EF9258
:100C5000FF920F931F93DF93CF9300D0CDB7DEB7F2
:100C60008C017B018FEFFB0180830E940E05F80150
:100C700080838823C9F481E080937D0180E880939C
:100C80007F0180917F018A8387E0BE016E5F7F4F85
:100C900041E00E94E8058823E9F483E0F8018083BD
:100CA00080917E01F701808380E00BC0898187FFFE
:100CB00007C08F77898380E0B80141E00E94E80592
:100CC00081E00F900F90CF91DF911F910F91FF90D6
:100CD000EF90089580E08E010F5F1F4FB80141E053
:100CE0000E949F05882311F7EBCF0F931F93DF938B
:100CF000CF93CDB7DEB727970FB6F894DEBF0FBE00
:100D0000CDBF8C0180917D01882379F180E0BE0107
:100D10006F5F7F4F47E00E949F05882331F18F81ED
:100D20000E94FE00F80180838E810E94FE00F8017F
:100D300081838D810E94FE00F80182838C810E9454
:100D4000FE008150F80186838B810E94FE00F8012D
:100D500083838A810E94FE00F801848389810E9436
:100D6000FE00F801858381E001C080E027960FB680
:100D7000F894DEBF0FBECDBFCF91DF911F910F91D1
:100D800008950F931F93DF93CF93CDB7DEB72797C7
:100D90000FB6F894DEBF0FBECDBF8C0180917D01F0
:100DA000882369F1F80185810E9408018983F8018F
:100DB00084810E9408018A83F80183810E940801CE
:100DC0008B83F80186810E9408018F5F8C83F80174
:100DD00082810E9408018D83F80181810E940801AF
:100DE0008E83F80180810E9408018F8380E0BE011C
:100DF0006F5F7F4F47E00E94E805811181E02796F1
:100E00000FB6F894DEBF0FBECDBFCF91DF911F911B
:100E10000F9108952E9826980895FC0180919F01C6
:100E2000882309F473C08091A001823051F183308E
:100E300009F04BC02091A3013091A4018091A3013E
:100E40009091A401232F33278095909590702817B7
:100E5000390709F058C08091A3019091A4019070C6
:100E60009093A4018093A3012091A3013091A40148
:100E70008091A5019091A601982F8827822B932B12
:100E800020C02091A3013091A4018091A3019091F1
:100E9000A401232F33278095909590702817390748
:100EA00059F08091A3019091A40180708050914DE0
:100EB00051F58BE08093A0018091A3019091A40152
:100EC00090709093A4018093A3018091A0018083EE
:100ED0008091A1019091A201928381838091A301CD
:100EE0009091A401948383838091A70185831092BC
:100EF000A4011092A3011092A2011092A1011092DC
:100F0000A70181E001C080E010929F010895982F11
:100F100060918D0170919701671738F18091980168
:100F2000681718F580919D01292F30E04091A801A4
:100F30005091A901882381F0862F90E0871B9109A9
:100F400002C0220F331F8A95E2F7422B532B509396
:100F5000A9014093A80151C0440F551F242B352BE4
:100F60003093A9012093A80148C070919901671797
:100F700038F180919A01681718F580919D01292F09
:100F800030E04091AA015091AB01882381F0862F77
:100F900090E0871B910902C0220F331F8A95E2F768
:100FA000422B532B5093AB014093AA0126C0440F10
:100FB000551F242B352B3093AB012093AA011DC064
:100FC00080918E018330C9F46131B8F06531A8F4A5
:100FD000892F90E0262F30E02151304002C0880F49
:100FE000991F2A95E2F72091AC013091AD01282B91
:100FF000392B3093AD012093AC016F5F60938D016D
:10100000089593B180919F01882309F0E8C39074FB
:1010100080918C01882381F580918901992321F4A5
:101020008F5F80938901DBC38823B9F091E09093AF
:101030008C0190938A0110928B011092AB01109257
:10104000AA011092A9011092A8018FEF80938D013F
:101050009093880110928201C2C380918601909181
:1010600087012FEF8F3F920709F4B9C30196909340
:10107000870180938601B3C380918A01882309F494
:1010800003C1992349F0809188018F5F8093880183
:10109000863A08F48BC2A2C120918901822F855122
:1010A000873048F480918801843028F0883018F423
:1010B00068E670E0A2C0822F85538B3480F4809163
:1010C00088018A3128F0813428F469E770E095C0FE
:1010D0008C3028F0813218F46AE870E08EC0822FDC
:1010E00087528C3048F480918801873228F083330E
:1010F00018F46BE970E081C0822F8B51813148F484
:10110000809188018B3128F08C3218F46CEA70E001
:1011100074C0822F8D518A3048F4809188018E30BE
:1011200028F0853118F46DEB70E067C0822F87508E
:10113000853018F087508930E8F490918801892F24
:101140008750853018F087508930A0F49093810142
:101150002C502B3018F09C509B3030F410928001B2
:1011600080E48093820103C081E0809380016EEC73
:1011700070E043C0822F8150843048F49091880100
:10118000892F80518730B8F196509530A0F1822F89
:101190008751883068F480918801873048F08C301E
:1011A00038F4109281011092800160EF70E025C048
:1011B000822F8A50883048F480918801823028F04C
:1011C000863018F461E071E018C02350253070F4C7
:1011D00080918801863150F0823240F48093810101
:1011E00081E08093800162E171E007C010928C0180
:1011F00060E070E002C06FED70E080918C018823A8
:1012000031F08EE891E041E150E00E94E917109240
:101210008D0180919E01482F50E080FF1FC080917A
:101220008E018930D9F02091880180919001821738
:1012300060F430E090E0880F991F821793072CF03C
:1012400056954795842F809507C08091800188230B
:1012500099F456954795842F81700CC080918E012A
:10126000883051F4809188018051873010F481E0FA
:1012700001C080E00E94870781E08093890110927D
:10128000880110928A0192C180918B01882309F410
:1012900080C1992309F4A9C040918D0160919B01FF
:1012A000461799F480919C01813079F490918901DD
:1012B00080919301981708F491C080919401891747
:1012C00008F48CC010929C0171C1509188015F5F3D
:1012D0005093880180918E018130A1F4593008F437
:1012E0004CC04B3008F449C04F5F40939B014150C4
:1012F00080919901480F4F5F40939A0187E0809356
:10130000880173C08F30C9F580919C018823A9F5AD
:10131000252F30E08091920190E0880F991F82176D
:10132000930734F4483020F08AE080939B013FC05B
:101330004A3008F43BC180E180938E0199E090939C
:10134000970181E18093980181E0809399019093C6
:101350009A012091AA013091AB01C901807093706C
:10136000892B09F423C13093A8011092A901307090
:101370003093AB012093AA0119C180919E0180FF97
:101380001AC0252F30E08091920190E0880F991FBC
:101390008217930784F4242F30E0862F90E0029781
:1013A0002817390744F080919C01882321F481E0BB
:1013B00080939C011AC0563A08F4F8C0242F30E0FC
:1013C000862F90E001972817390741F480919C01FE
:1013D000882321F44F5F40938D01E8C010928C0167
:1013E0001092890110928801E1C080919E01482FDE
:1013F00050E080FF6DC080918E018930B9F48091FA
:101400008D01833098F0863088F4809189018C308A
:1014100038F0809188018C3018F081E00E948707B5
:1014200080E00E948707109280014DC06091890181
:1014300070919001761708F5262F30E0872F90E005
:10144000880F991F82179307C4F056954795842FEC
:10145000809581700E94870780919E0190E096950B
:10146000879581700E94870780919E0190E09695F4
:10147000879581708093800126C080918F016817C5
:10148000F0F07617E0F020918101809192018217AF
:1014900080F430E090E0880F991F821793074CF09A
:1014A00090E080918001882309F491E0909380017D
:1014B00002C090918001892F0E94870704C010927A
:1014C0008C0110928801809188018093810144C031
:1014D00080918E01833049F580918D01803129F50D
:1014E000809189018350863008F04DC09091880129
:1014F000973260F0933350F410928B011092AD014B
:101500001092AC0181E180938D0141C08AE080930B
:101510008E0180E18093990180E280939A0180930B
:101520009B0199509C3068F514C09091890180917D
:101530008F019817A0F080919001891780F0209179
:10154000880180919101281750F0809192018217B3
:1015500030F081E00E94870710928B0118C08091C3
:101560009301981780F080919401891760F0909111
:10157000880180919501981730F080919601891724
:1015800010F080E0E7CF10928C011092880181E08A
:1015900005C0992331F4809189018F5F809389017F
:1015A00005C081E080938B018093880180918C013C
:1015B000882309F414C120918D0180919B01281783
:1015C00009F00DC180919C01882309F008C1609148
:1015D000AA017091AB018091550190915601861737
:1015E000970769F48091860190918701845F91400B
:1015F00030F4809185018F5F8093850102C0109245
:10160000850140918E01413031F4809185018150F6
:10161000823070F408C04A3011F04D3049F48091A6
:10162000850180FF05C0109287011092860193C04A
:1016300081E080939F01483029F59B0120953095EA
:10164000337080918301909184012817390799F4B0
:101650003093AB012093AA014093A0018091A8018F
:101660009091A9019093A2018093A1013093A401CC
:101670002093A30170C010929F0170938401609326
:10168000830169C04F3021F46F5F7140B9F50CC020
:10169000403169F48091A8019091A9018F3F910593
:1016A00069F56E3F710551F510929F0154C04230AB
:1016B00029F5222319F58091860190918701805B9D
:1016C0009440D0F480915701909158019093A901D2
:1016D0008093A80180915501909156019093AB01A0
:1016E0008093AA018091A70181608093A701109245
:1016F00087011092860102C010929F014093A001C1
:101700008091A8019091A9019093A2018093A101D9
:101710009093580180935701473069F420918201DA
:1017200030E08091AA019091AB01822B932B909392
:10173000AB018093AA018091AA019091AB01909393
:10174000A4018093A3018091AC019091AD0190938D
:10175000A6018093A50180919F018823B1F120917A
:10176000A3013091A40180915501909156018217F7
:101770009307B9F42091A1013091A2018091570102
:10178000909158018217930761F48091860190919E
:1017900087018C5D954028F48091A701816080933A
:1017A000A7018091A8019091A9019093580180937D
:1017B00057018091AA019091AB01909356018093BB
:1017C0005501109287011092860110928C0110929F
:1017D000AB011092AA0110928901109288018091A8
:1017E0009F010895DF93CF930F92CDB7DEB780E6C8
:1017F00080937C0085E880937A0080917A008064F1
:1018000080937A0080917A0086FDFCCF80917900E8
:10181000898320E030E08981F901E155FE4F808322
:101820002F5F3F4F20313105B1F7898190E09093D0
:10183000C0018093BF018091BF019091C00124E05D
:10184000880F991F2A95E1F79093C0018093BF01FB
:1018500080917A00806480937A000F90CF91DF911D
:1018600008958091BF019091C00134E096958795CD
:101870003A95E1F78095089580917A0086FD27C01A
:10188000409179008091BF019091C0013091AE01EB
:10189000E32FF0E0E155FE4F2081821B91099093E8
:1018A000C0018093BF0140838091BF019091C0012E
:1018B000840F911D9093C0018093BF013F5F3F70E3
:1018C0003093AE0180917A00806480937A0008950D
:1018D0008091C9018F5F8093C90108950F931F9371
:1018E000DF93CF9300D0CDB7DEB70E941C100E94CB
:1018F0002D170E9478010E945B04CE010196BE0163
:101900006E5F7F4F0E9427060E94F20B0E94110D0E
:101910000E940A070E94AD0F0E94DC1178940E9479
:101920007F0D01E00E94310C182F16951695169523
:1019300080915901811729F0812F0E94D80D1093B1
:1019400059019091C90180915A01891709F453C036
:101950009091C9018091C801981740F081EC91E005
:101960000E947506882309F446C004C08091C9010D
:101970008093C60190915B018091C501981791F009
:1019800081EC91E00E9458138091C50180935B0126
:101990009091C40180915C01891721F00093160297
:1019A00090935C0180915A018F3F51F08091C90161
:1019B0002091C601281720F49091C901921B01C003
:1019C00090E08091C6018093C9018091C901809304
:1019D0005A01992329F08091C901815F891B03C0B5
:1019E0008091C901815F8093C8018091C8018C33C7
:1019F00010F01092C8010E94E91381EC91E00E945E
:101A0000FB01882309F48ECF81EC91E00E94C1068E
:101A10008091C6018093C90181EC91E00E94581326
:101A200081CF5E98569A83E084BD85BD8093B000D7
:101A300084E08093B1005D98559A5B98539A08951D
:101A40005E9884B58F7384BD5D9884B58F7C84BDAA
:101A50005B98E0EBF0E080818F7C80831092CA017C
:101A600008952091CC0130E02F5F3F4F8093D20149
:101A70006093D3014093D40190E0FC01E29FC00148
:101A8000E39F900DF29F900D1124892F809587BDC3
:101A900070E0629FC001639F900D729F900D1124B2
:101AA000892F809588BD50E0429FC001439F900DD3
:101AB000529F900D1124892F80958093B400089532
:101AC0008091CD01882391F4E0915C028091CB015B
:101AD000E80FE0320CF0EFE1E7FDE0E0FF27E7FD83
:101AE000F095ED5DFE4FE491E093CC018091D20141
:101AF0006091D3014091D4010E94310D089584B5C5
:101B0000806C84BD84B5806384BDE0EBF0E08081AF
:101B10008063808381E08093CA010E94600D0895F4
:101B20008091CA01882319F00E94200D08950E9417
:101B30007F0D0E94600D0895FC01DB018091D201B0
:101B400080838091D3018C938091D401FA018083AA
:101B50000895803208F08FE1603208F06FE1403282
:101B600008F04FE18093CF016093D0014093D10101
:101B7000E82FF0E0ED5DFE4F8491E62FF0E0ED5DA3
:101B8000FE4F6491E42FF0E0ED5DFE4FE4914E2FA7
:101B90000E94310D0895FC01DB018091CF0180830B
:101BA0008091D0018C938091D101FA0180830895B6
:101BB000803208F08FE18093CE01E82FF0E0E35A05
:101BC000FD4F80818093CB010E94600D089580912C
:101BD000CA01882389F030915C02832F992787FD01
:101BE00090952091CB01820F911D4F972CF43F5F70
:101BF00030935C020E94600D08958091CA01882391
:101C000091F030915C02832F992787FD9095209168
:101C1000CB01820F911D181619062CF43150309308
:101C20005C020E94600D089591E09093CD01809335
:101C3000CC010E94600D08951092CD010E94600DAC
:101C40000895EF92FF920F93DF93CF9300D0CDB71B
:101C5000DEB7062F081B0230A0F1282F30E03A83B0
:101C60002983F901E35AFD4F2081332727FD309561
:101C7000F22EEE2480E890E0E80EF91EE62FF0E068
:101C8000E35AFD4F908180E0921B602F70E00E942C
:101C9000D617AB01E981FA81E25AFD4F69817A8159
:101CA0006B5B7F4F0250600F711D665E7D4FE40ECF
:101CB000F51E8F2D992787FD9A958193E617F707D3
:101CC000B1F70F900F90CF91DF910F91FF90EF90B0
:101CD00008952F923F924F925F927F928F929F92A0
:101CE000AF92BF92CF92DF92EF92FF920F931F932A
:101CF000CF93DF9380915C02882309F4F4C0809035
:101D0000CB01880E8FE1881510F430E2832E70909D
:101D1000CE01C72DD0E0FE01E35AFD4F808221970E
:101D200021E0A22EB12CC12CD12C0C2E04C0AA0C67
:101D3000BB1CCC1CDD1C0A94D2F72196E0907D02DE
:101D4000F0907E0200917F0210918002772D7150F9
:101D500091E0292E312C412C512C772011F460E098
:101D600013C0672FA601950105C056954795379575
:101D700027956150DA01C9018E219F21A023B1234B
:101D80000097A105B10589F3262F30E0F901E35A48
:101D9000FD4F80818816B8F02196B1E0AB2EB12CB2
:101DA000C12CD12C0C2E04C0AA0CBB1CCC1CDD1CDD
:101DB0000A94D2F72197772D7F5FA1E02A2E312C4C
:101DC000412C512C16C08082662339F2D201C10108
:101DD000062E04C0880F991FAA1FBB1F0A94D2F7B2
:101DE00080959095A095B095E822F9220A231B23AF
:101DF000B4CF8EE1871518F4FFE19F2E13C0972E04
:101E0000A601950105C0220F331F441F551F93944F
:101E1000DA01C9018E219F21A023B1230097A105DA
:101E2000B10589F3292D30E0F901E35AFD4F808196
:101E30008815B8F480828EE18915D8F2D201C101EB
:101E4000092C04C0880F991FAA1FBB1F0A94D2F740
:101E500080959095A095B095E822F9220A231B233E
:101E6000C8CFE0927D02F0927E0200937F02109331
:101E70008002862F672D0E94210E872D692D0E94DA
:101E8000210E81E090E0A0E0B0E004C0880F991F2F
:101E9000AA1FBB1FCA95D2F720917D0230917E0206
:101EA00040917F0250918002822B932BA42BB52B63
:101EB00080937D0290937E02A0937F02B093800274
:101EC0008092CB0110925C020E94600D0E94900DE6
:101ED00088E893E128EC30E0F9013197F1F70197B8
:101EE000D9F70E94900DDF91CF911F910F91FF9034
:101EF000EF90DF90CF90BF90AF909F908F907F90AA
:101F00005F904F903F902F9008959B01AC01BB27AD
:101F1000A52F942F832F9EBD0DB407FEFDCF8EBD40
:101F20000DB407FEFDCF2EBD0DB407FEFDCF2A98E0
:101F30002A9A089584B18C6284B9249885B1846109
:101F400085B988E58CBD8DB581608DBD60E070E0A0
:101F500080E090E00E94850F08958FE193E09093D8
:101F600087008093860082E08093800089E18093DF
:101F7000810080E280936F0008951F920F920FB648
:101F80000F9211242F933F934F935F936F937F93FF
:101F90008F939F93AF93BF93EF93FF930E9401089A
:101FA0008091D9018F5F8093D9018A30A1F5109279
:101FB000D9018091D8018F5F8093D8018A3059F57B
:101FC0001092D8010E9487010E9437138091D70197
:101FD0008F5F8093D7018A30F1F41092D7010E946D
:101FE00020130E9407038091D6018F5F8093D60152
:101FF0008A3089F41092D6010E94680C0E943C0C31
:102000000E9496128091D5018F5F8093D5018C3309
:1020100011F41092D501FF91EF91BF91AF919F9173
:102020008F917F916F915F914F913F912F910F9081
:102030000FBE0F901F901895E1ECF0E08081886949
:1020400080831092C50083E38093C4000895982F85
:102050008091C00085FFFCCF9093C6000895FC01DD
:1020600007C08091C00085FFFCCF31969093C600D9
:1020700090819923B1F708959C0106C08091C0001A
:1020800085FFFCCF9093C600F9012F5F3F4F9491DD
:102090009923A1F708951F920F920FB60F92112462
:1020A0002F938F939F938091C600823561F428E02F
:1020B00088E190E00FB6F894A895809360000FBE79
:1020C00020936000FFCF9F918F912F910F900FBEB3
:1020D0000F901F9018956CE00E94B617E92FF0E062
:1020E000EE0FFF1FE75FFE4F80819181BC0180E012
:1020F00090E00895FF920F931F93CF93DF93F82EF4
:102100001091EE01115050910D0240910B0230914F
:102110000A02C12FDD27C7FDD095C552DE4F212F02
:10212000FE0101E061E01AC08081813011F4952F39
:1021300009C0863011F4942F05C0853011F090E06D
:1021400001C0932F002319F480E090E004C080E0E8
:10215000911181E08627082F215031972F1524F700
:10216000002369F40EC08881843011F40E941C0E93
:102170008091EE0181508093EE01115021971F153F
:1021800094F7802FDF91CF911F910F91FF900895C9
:10219000DF93CF9300D00F92CDB7DEB780910702C7
:1021A00081508093070290915902891708F180911C
:1021B000050290910602019661E076E00E94C21746
:1021C0008093050290930602BE016F5F7F4FAE01C0
:1021D0004E5F5F4F9E012D5F3F4F0E9446178981E2
:1021E0006A814B810E94310D8091590280930702D0
:1021F0000F900F900F90CF91DF910895DF93CF93C1
:10220000CDB7DEB727970FB6F894DEBF0FBECDBFB0
:10221000282F9091EE01992349F0E92FFF27E7FD40
:10222000F095E652FE4F8081821779F0E92FFF2763
:10223000E7FDF095E552FE4F2083E22FF0E0EB51F1
:10224000FE4F90839F5F9093EE01273001F5AEE043
:10225000B2E0FB0187E001900D928150E1F710920E
:10226000150281E080930D028091110288508C301C
:1022700010F48FEF01C082E30E94140E8EE092E012
:102280000E946B042FEF3FEB40E050E038C021305C
:1022900021F4CB010E94BC1144C02630C1F4FE01E0
:1022A000319687E0DF011D928A95E9F7809153020C
:1022B0008C83809154028D8310920C0286E067E03B
:1022C000AF010E949A1181E080930B022AC0253051
:1022D00051F485E067E046EF51E00E949A1181E0F9
:1022E00080930A021EC0283069F48AE08093FF01BF
:1022F000862F0E946B1020E030E040E050E00E940A
:10230000E4030FC0222349F460E070E080E09FE026
:1023100020E030E040E05FE0F2CF233011F40E9493
:10232000C81027960FB6F894DEBF0FBECDBFCF9171
:10233000DF9108951F93CF93DF93162FEA018F3F0C
:1023400011F4E0E008C0E82FFF27E7FDF095EB511E
:10235000FE4FE081EF5F8091EE01E81729F08E2FAC
:102360000E947A10882321F0812FBE010E94FE1066
:10237000DF91CF911F9108950F931F938C0180914E
:10238000520290E0FC01EE0FFF1FE80FF91FE65E1E
:10239000FD4F84A565A546A50E94A90D012B49F016
:1023A0004091520250E04F5F5F4F81E068E00E9431
:1023B0009A111F910F91089580915A028F7760E0D2
:1023C00070E00E94FE1080915A0287FF05C084E0F1
:1023D00060E070E00E94FE1080E060E070E00E942B
:1023E000FE10219A399A529A0895EF92FF920F9314
:1023F0001F93DF93CF93CDB7DEB727970FB6F8942F
:10240000DEBF0FBECDBF182FF62EE72EE82FF0E06F
:10241000EB51FE4F0081802F0E947A1086EF91E0F1
:102420000E946B0420E030E040E050E00E94E403B2
:10243000E02FFF27E7FDF095E652FE4F80818630C2
:1024400009F04DC0173009F064C0DE0111968F2DE0
:102450009E2D9C01F90187E001900D928150E1F7DA
:1024600090910C02E92FF0E0EE0FFF1FDF01A65E56
:10247000BD4F8C81D9968C93EC5AFD4F8D81808312
:102480009F5F90930C029230A1F4809157028F5F6E
:102490000E946B109B01AC010E94E40380915702E3
:1024A000882321F081E08093DA0133C01092DA01B1
:1024B00030C0E92FF0E0EE0FFF1FDF01A65EBD4F39
:1024C000D9968C918C83EC5AFD4F80818D8386E068
:1024D00067E0AE014F5F5F4F0E949A111AC08530CE
:1024E000C1F41730B1F48F2D9E2D0E94C106A6EFC6
:1024F000B1E08F2D9E2D9C01F90187E001900D9296
:102500008150E1F710920A0285E060E070E00E94DD
:10251000F51127960FB6F894DEBF0FBECDBFCF9151
:10252000DF911F910F91FF90EF9008951092190283
:102530008091F201893718F48F5F8093F2018091C6
:10254000F3018B3018F48F5F8093F3018091F201D7
:10255000883729F48AE192E069E60E9404178091A5
:10256000F0018230E9F08091DA018823C9F4E0912A
:10257000EE01FF27E7FDF095E652FE4F80818823AC
:10258000D1F48091FD018F3FB1F08F5F8093FD0109
:10259000873089F480E060E070E00E94F5110895D2
:1025A00080915702882339F08091DA010E940D044E
:1025B00081E0809319020895982F8091E901E82F16
:1025C000F0E0E652FE4F923019F5809109028F5FDC
:1025D00080930902853098F161E070E080E090E03E
:1025E0000090080204C0660F771F881F991F0A9485
:1025F000D2F720E030E040E050E00E94E403809118
:1026000008028F5F8F71809308021092090208956B
:10261000983069F48091FF0181508093FF018823F5
:1026200071F488E060E070E00E94F5110895943044
:1026300011F49081C8CF933011F40E94C81008950E
:10264000E091EE01FF27E7FDF095E652FE4F808115
:102650000E94DC128091EF01882319F08150809351
:10266000EF018091F5018F5F8093F5010895E0916E
:10267000EE01FF27E7FDF095E652FE4F80818430A2
:10268000B1F4809104028F5F80930402909158020C
:10269000891768F0809103020E949D170E94140E12
:1026A000809103028F5F80930302109204020895C9
:1026B000009709F46FC0A6EFB1E0FC0187E001903C
:1026C0000D928150E1F78091F3018A3008F462C0E5
:1026D0002091F9017091FA01509153023091540206
:1026E00040915502E0915602521748F0251719F013
:1026F00080E090E006C080E090E0731710F081E089
:1027000090E0682F241718F421E030E00CC0241763
:1027100019F020E030E007C080E090E07E1710F470
:1027200081E090E09C01451748F4662321F480E0A5
:1027300090E0222379F081E090E00CC0662319F448
:1027400080E090E007C090E0222309F491E081E06E
:102750009827892F9091F001882361F49330D1F06C
:102760001092F00185B19091F101892B85B90E94F9
:102770007F0D10C0992371F482E08093F00185B140
:1027800082708093F101299880915702882311F477
:102790000E94200DE091EE01FF27E7FDF095E65243
:1027A000FE4FE081EE23A1F0E83091F0E23081F0BD
:1027B000E53071F0E63061F0E73051F08091F001E2
:1027C000823031F086EF91E00E946B040E94CF02CC
:1027D00008952F923F924F925F926F927F928F92C5
:1027E0009F92AF92BF92CF92DF92EF92FF920F93A0
:1027F0001F93DF93CF93CDB7DEB72A970FB6F89428
:10280000DEBF0FBECDBFCE0104960E940D07882308
:1028100009F4D1C28091EF01882309F0DCC283E082
:102820008093EF014091EE01E42FFF27E7FDF09543
:10283000E652FE4F80818823F1F52091FE014D8103
:102840005E81222311F180911A0290911B0284175C
:10285000950729F5E22FF0E0EE0FFF1FE65EFD4F32
:102860008F81988591838083253159F48AE192E0A4
:1028700061E40E94041780E060E070E00E94F511BE
:10288000AAC22F5F2093FE010AC08FEF8093FD0143
:1028900050931B0240931A0281E08093FE018091C5
:1028A000FE010E946B109B01AC015F60CA01B9017F
:1028B0000E94E40390C220911A0230911B028D8184
:1028C0009E812817390709F086C22F813885ECE1EF
:1028D000F2E0DD2405C0D394329655E1D51629F1F6
:1028E0008081918182179307B1F7DD20F1F4809107
:1028F000F001823030F483E08093F0010E94200DDB
:102900000EC0833019F41092F00103C081E080936F
:10291000F0010E947F0D80E090E00E9458138AE150
:1029200092E069E60E94041736C2C42ECA94AC2C09
:10293000BB24A7FCB0948BED91E0A80EB91E80E0FB
:102940009D2D93509A879924939412E0412E512CF7
:102950004C0E5D1EB3E02B2E312C2C0E3D1E612C37
:10296000A6E07A2EF3E08F2E86C1F50180818730B4
:1029700009F097C0E091EC01F0E0E652FE4FE081F3
:10298000E53021F4F5E0DF16D1F405C0E630B9F406
:1029900026E0D216A1F480911502882319F49092B2
:1029A00015025DC0813009F05AC0109213021092D6
:1029B0000D020E941C0E87E06EE072E03EC13A8577
:1029C000323008F04CC043E0D41611F04FEF01C094
:1029D00041E0809115028823F1F44F3F41F480914A
:1029E0001102882321F457E15093110209C080910C
:1029F0001102840F80931102883110F0109211029D
:102A00008091110288508C3010F48FEF01C082E366
:102A10000E94140E24C0813011F5E63021F48FE0BD
:102A2000489F402D112447FF11C02091120230E031
:102A3000842F992787FD9095909581959F4F281712
:102A4000390724F4445C4093120209C080911202B9
:102A5000840F809312028C3310F010921202809136
:102A60001502882339F0E12CF12CEFEF0E2FEFE067
:102A70001E2F06C07FEFE72E7FE3F72E012D112DCD
:102A80008EE092E00E946B0420E030E840E050E0ED
:102A9000E22AF32A042B152BA80197010E94E403D4
:102AA000E1C0813009F08CC038E0D31659F4809130
:102AB00052028F5F83708093520281E090E00E9407
:102AC000BC11D0C04CE0D41619F410920002CAC058
:102AD0005DE0D51619F480930002C4C08EE0D816CC
:102AE00021F492E090930002BDC0EFE0DE1621F4E5
:102AF000F4E0F0930002B6C02A85223008F0B5C099
:102B000033E0D31611F02FEF01C021E090910002C5
:102B10009430E0F480915202889DF0011124EA5B28
:102B2000FD4FDF01A90FB11D8C912F3F29F48823A0
:102B300039F081508C9304C08F3110F4280F2C93FE
:102B40008081618142810E94A90D8CC02F3F59F480
:102B500080910102909102020A9798F47092020209
:102B6000609201021CC0213061F4809101029091B9
:102B70000202865F954028F0109202021092010234
:102B80000EC05AE02502C0011124209101023091AB
:102B90000202820F931F90930202809301028091A0
:102BA000010290910202BE016F5F7F4FA20191016D
:102BB0000E94461789816A814B810E94310D52C063
:102BC000843099F48A85823008F04FC093E0D9169A
:102BD00009F0F5C080915802823008F443C081505A
:102BE00001C08F5F809358023DC0863049F58091C7
:102BF0000C028230B9F5EA85E230A8F480915702E0
:102C00008925809357028F5F0E946B109B01AC0156
:102C10000E94E40380915702882319F09092DA0110
:102C200002C01092DA01F6E0DF16E1F410920B0216
:102C30001092DA0186E060E070E00E94F51112C0A7
:102C4000833099F42A85223080F433E0D31609F0DA
:102C5000BCC080915902823028F0815001C08F5F42
:102C60008093590281E090E002C080E090E0CA9435
:102C70000894A108B108C7FC04C0882309F475CEE4
:102C80008AC0882309F087C041E0D41619F40E9455
:102C9000E70D81C052E0D51619F40E94FD0D7BC0EE
:102CA00088E0D81629F48FEF61E041E050E05BC086
:102CB00095E0D91611F485E036C0E6E0DE1611F491
:102CC00086E031C0FAE0DF1689F4E091EE01FF27DB
:102CD000E7FDF095E652FE4F8081823029F460E0F6
:102CE00070E00E94F51157C082E01DC020E1D216AD
:102CF00019F40E94690E4FC039E0D316C9F48091CF
:102D0000EE01E82FFF27E7FDF095E652FE4FE08148
:102D1000E43021F481500E947A103DC0E13011F07E
:102D2000E330C9F584E060E070E00E94FE1033C03B
:102D300044E1D41689F460915B026F5F6770609321
:102D40005B0270E06F5F7F4F88E00E94FE1080E0C2
:102D500090E00E9458131FC05BE0D51639F48FEF46
:102D600063E040E050E00E949A1115C087E0D81659
:102D700021F481E0809316020EC091E1D91611F47E
:102D8000199A09C0E2E1DE1611F4319A04C0F3E1A8
:102D9000DF1609F54A9A9091DB0190935A028091CF
:102DA000DC01843019F4906890935A021092F20179
:102DB0001092F30110C085E18093F4010CC0809162
:102DC0005802853008F40DCF4DCF809159028830DC
:102DD00008F445CF47CF2A960FB6F894DEBF0FBE52
:102DE000CDBFCF91DF911F910F91FF90EF90DF90BA
:102DF000CF90BF90AF909F908F907F906F905F909B
:102E00004F903F902F900895EF92FF920F931F9352
:102E1000CF93DF93E62E2AE132E0F82EF21AEA94FD
:102E2000EF0C12C00F2D10E0E801C050D040CE01D1
:102E30000E940218065E1D4FF8016081861719F086
:102E4000CE010E940A18F394EF1460F7DF91CF913E
:102E50001F910F91FF90EF9008958AE192E060E05A
:102E600070E049E650E00E94F217809181028C30B8
:102E700021F480918202893641F08AE192E063E494
:102E800071E049E650E00E94E9170895CF93DF937F
:102E9000EB01FA01D9019C0120503C4FAC0140509C
:102EA0005E4F66E02030360718F09C01205032401B
:102EB00066E04030560710F0405056408F3F910575
:102EC00071F068F063E08030960710F48FEF07C070
:102ED00064E08030960710F080E001C08095808328
:102EE0002F3F310509F010F4822F0EC083E020300F
:102EF000380710F48FEF08C064E02030360710F078
:102F000080E002C0822F80958C934F3F510509F0DD
:102F100010F4842F0EC083E04030580710F48FEF78
:102F200008C064E04030560710F080E002C0842FF3
:102F300080958883DF91CF910895805887FD809593
:102F400090E080589F4F889F9001899F300D989FF7
:102F5000300D1124232F3327AC01249FC001259F5E
:102F6000900D349F900D1124892F0895991B79E0BD
:102F700004C0991F961708F0961B881F7A95C9F709
:102F800080950895AA1BBB1B51E107C0AA1FBB1F58
:102F9000A617B70710F0A61BB70B881F991F5A95E5
:102FA000A9F780959095BC01CD01089597FB092E56
:102FB00007260AD077FD04D0E5DF06D000201AF4FA
:102FC000709561957F4F0895F6F7909581959F4F85
:102FD0000895FB01DC0102C005900D924150504064
:102FE000D8F70895DC01CB01FC01F999FECF06C0AA
:102FF000F2BDE1BDF89A319600B40D9241505040B7
:10300000B8F70895F999FECF92BD81BDF89A992736
:1030100080B50895262FF999FECF1FBA92BD81BDC4
:1030200020BD0FB6F894FA9AF99A0FBE019608954A
:04303000F894FFCF42
:10303400010204080A1428500700200E000300208F
:103044000040008000000118000002000400080095
:1030540010212230C2C180A1A25042412122302439
:10306400C180A144504241212210C2C180A1A218B2
:10307400424121221024C180A144184241F00FE0B2
:0E3084000FF80FE80FFFFFFFFFFFFFFFFF0039
:00000001FF
