:100000000C94D6000C94FC000C94FC000C94FC00A6
:100010000C94FC000C94FC000C94FC000C94690300
:100020000C94FC000C9439030C94B10F0C94FC005C
:100030000C94FC000C94FC000C94FC000C94FC0050
:100040000C94FC000C94FC000C943F100C94FC00ED
:100050000C94FC000C94FC000C94FC000C94FC0030
:100060000C94FC000C94FC00010A0E040804080423
:10007000080F14000F1400010002020909190209F7
:1000800002090010102020010100020209091902D2
:10009000090209000000000001010003030809141F
:1000A00003080207001015252501010004040D0FA7
:1000B00026040D040D0C18000C18010100050108A0
:1000C00005140108010700101C2830010100070772
:1000D0000B070B010101010207070D0D00000108CC
:1000E000010410160104060A0005050F0F010000A7
:1000F000090306030601010101050D0D1515000098
:10010000030D0A110205030709110000000A0A0184
:1001100000000F03070307010101010000010B119B
:100120000001030102030405060708090A0C0E106A
:100130001215181C20252A30373F4853606F8199CB
:10014000B6D8FF807B1300180019000A000B0009C5
:10015000001500000001001E00030002000400055D
:100160000006000700450052001300130008001F9E
:100170000000001F0000001F1F1F1F0000000000E4
:100180000101010100000506070808090A0B0C0D12
:100190000D0E0F1011121213141516171718191A25
:1001A0001B1C1C1D1E1F010000800C6914BE88E171
:1001B0000FB6F89480936000109260000FBE112477
:1001C0001FBECFEFD4E0DEBFCDBF11E0A0E0B1E0B5
:1001D000E6E3F0E302C005900D92AC31B107D9F728
:1001E00012E0ACE1B1E001C01D92A134B107E1F72A
:1001F0000E94620C0C9419180C940000282F229570
:100200002F709AE0299F900111248F70820F08951A
:10021000382F8DEC389FC0011124292F2695269563
:10022000269586EF9FEF289F802D1124830F22951E
:10023000207F822B0895FB01138290E291839083AB
:100240006DEC869F90011124369536953695805D2C
:1002500046EF5FEF349F902D1124980F9283332344
:1002600081F0369FC0011124969596959695305D44
:10027000949F802D1124830F8183992311F0905D29
:1002800090830895382FFB0112828DEC389FC001B6
:100290001124292F26952695269511F480E202C077
:1002A000822F805D8083305D86EF9FEF289F802DB9
:1002B0001124830F8183089510922001EEE1F1E073
:1002C0001192109221011082109228018091D50183
:1002D00081608093D5011092220110922301109227
:1002E00024011092250110922601109227010895F1
:1002F00027982F98549A5C988091D5018D7F8460BF
:100300008093D5010E945C011092290108952091EB
:10031000D50122FF6FC021FD57C01F9906C08091F3
:100320002A018F5F80932A0105C080912B018F5F86
:1003300080932B0140912A0130912B01842F90E072
:10034000830F911D843691050CF454C0442311F0A1
:100350003323C9F480911D018F5F80931D01843187
:1003600071F510921D0180911C018F5F80931C011B
:100370001F9B02C02F9801C02F9A8E3101F52F9A32
:1003800022602B7F1AC080911D018F5F80931D0119
:100390008E3121F426602093D5010895822F887034
:1003A000341730F4882359F010921D01277F05C0BF
:1003B000882329F410921D0128602093D501109202
:1003C0002A0110922B0108958091D401882391F085
:1003D00023FF03C01F9B0AC002C01F9907C0809162
:1003E0001E018F5F80931E015C9808952160209309
:1003F000D5015C9A0895FC018091D5018570853006
:1004000011F080E0089580911E018730F8F080910E
:100410001E018E3420F480911E018036B8F4809144
:100420001E018A3A28F080911F018A3309F094C096
:1004300080911F018B3308F08FC080911F0185319F
:1004400040F480911F018F5F80931F0110921E0165
:1004500085C080911E018E3408F455C080911E0124
:10046000803608F050C080911E018735F0F48091ED
:1004700020018F5F8093200180911F018C31A9F0B2
:1004800080911F01833289F0A0912801B0E0A25E23
:10049000BE4F14969C911497E0912101F0E0E0503A
:1004A000FF4F8081980F14969C93809121018F5F5C
:1004B0008093210180911F018C3121F080911F01D7
:1004C000833221F48091200180FD46C080911F017C
:1004D0008C3189F080911F01833269F080911F0176
:1004E000893249F080911F018C3229F080911F01DF
:1004F000813309F0A6CF809128018F5F8093280176
:10050000109221019ECF80911E018A3A38F180918C
:100510001E018B3B28F4809120018F5F8093200186
:1005200080911F018A33C1F48091200180FD14C0A5
:1005300040912201809123012CE3829FC00111246C
:10054000480F8091290190E00196242F30E0821716
:10055000930759F0409329010E945C018091D501D5
:100560008E7F8093D50180E00895158280912201CD
:1005700084838091230183838091240182838091ED
:1005800025018683809126018183809127018083C4
:100590000E945C011092D4015C9881E00895109251
:1005A00035011092360110923701109238012091D6
:1005B0003101309132014091330150913401209347
:1005C0002D0130932E0140932F0150933001609301
:1005D00031017093320180933301909334018FE1A4
:1005E0008093D601E091D601F0E0ED5DFE4FE491FD
:1005F000E33010F48FEF08C0E091D601F0E0ED5D3C
:10060000FE4FE49182E08E1B8093B3000895209109
:100610003501309136014091370150913801211553
:1006200031054105510521F18091D601882301F55D
:10063000809108018150809308018823C9F460915A
:100640003101709132018091330190913401622720
:10065000732784279527609331017093320180932B
:100660003301909334010E94300487E080930801A5
:1006700008951F920F920FB60F9211242F933F935C
:100680004F935F936F937F938F939F93AF93BF939A
:10069000EF93FF938091D601882351F0609131014F
:1006A0007091320180913301909134010E943004A5
:1006B000FF91EF91BF91AF919F918F917F916F913A
:1006C0005F914F913F912F910F900FBE0F901F9010
:1006D00018951F920F920FB60F9211242F933F93EC
:1006E0004F935F936F937F938F939F93AF93BF933A
:1006F000EF93FF938091D601823008F44AC0609155
:100700002D0170912E0180912F01909130010E9456
:10071000300490912C019F5F90932C018091D70120
:100720008823C9F09F3009F03EC010922C018091BF
:10073000D60181508093D601E091D601F0E0ED5DC5
:10074000FE4FE491E330C0F0E091D601F0E0ED5DC2
:10075000FE4FE49119C09E3131F510922C01809129
:10076000D60181508093D601E091D601F0E0ED5D95
:10077000FE4FE491E33010F48FEF08C0E091D60112
:10078000F0E0ED5DFE4FE49182E08E1B8093B300BC
:100790000AC06091310170913201809133019091D2
:1007A00034010E943004FF91EF91BF91AF919F916E
:1007B0008F917F916F915F914F913F912F910F900A
:1007C0000FBE0F901F9018952623372348235923D7
:1007D000209335013093360140933701509338010F
:1007E0002091310130913201409133015091340117
:1007F00020932D0130932E0140932F01509330010F
:1008000060933101709332018093330190933401EE
:100810001092D6010E9430040895682F809139010A
:100820008F5F87708093390180FF13C0869590E0B9
:10083000489621E030E040E050E004C0220F331F32
:10084000441F551F8A95D2F761113860CA01B9015A
:1008500004C060E070E080E090E00E94CF02089564
:10086000EF92FF920F931F937B018C010E94790FEF
:1008700010FF02C0289A01C0289811FF02C05F9A99
:1008800001C05F9812FF02C0429A01C0429813FF54
:1008900002C0439A01C043981F910F91FF90EF90BF
:1008A00008950E948E0F209A579A3A9A3B9A289858
:1008B0005F9842984398E0E7F0E08081836080830E
:1008C00008956F927F928F929F92AF92BF92CF9234
:1008D000DF92EF92FF920F931F93FC013381D4803C
:1008E0008D2D65E00E94B717482F5091190250FFD7
:1008F00008C0882331F080E090E0A0E0B0E046300E
:1009000021F481E090E0A0E0B0E03D3008F03C5000
:10091000332309F43CE0442361F1E42FF0E0E85F85
:10092000FE4F2081523058F4433011F420E30AC0C6
:10093000493011F420E505C0443018F403C04330B9
:1009400008F03F5FE22EFF2400E010E0EE0CFF1CF9
:10095000001F111FE82AF92A0A2B1B2B8D2D65E099
:100960000E94B717292F51E0A52EB12CC12CD12CF4
:1009700017C0E12CF12C20E4022F112DEBCF822F98
:1009800090E047963501460104C0660C771C881C30
:10099000991C8A95D2F7E628F728082919292150A9
:1009A000222369F73D3008F03C50313051F44423A4
:1009B00041F080E092E0A0E0B0E0E82AF92A0A2BBA
:1009C0001B2B832F90E0099621E030E040E050E0BF
:1009D00004C0220F331F441F551F8A95D2F72E29BA
:1009E0003F29402B512BB901CA011F910F91FF9054
:1009F000EF90DF90CF90BF90AF909F908F907F90BF
:100A00006F90089580913A01882341F41092B900C3
:100A100080E28093B80081E080933A0180E00895FD
:100A2000982FFB0184EA8093BC008091BC0087FF73
:100A3000FCCF8091B900887F883011F0803181F43B
:100A40009093BB0084E88093BC008091BC0087FF3A
:100A5000FCCF8091B900887F883129F0803419F06B
:100A6000808381E0089580E00895982F44EA34E877
:100A700024E94093BC008091BC0087FFFCCF8091AB
:100A8000B900887F883011F0803199F79093BB00CE
:100A90003093BC008091BC0087FFFCCF8091B900EF
:100AA000887F803211F0883539F42093BC00809122
:100AB000BC0084FDFCCFDDCF08950E941005089591
:100AC00084E98093BC008091BC0084FDFCCF089534
:100AD000FB018093BB0084E88093BC008091BC0044
:100AE00087FFFCCF8091B900887F883211F480E0C5
:100AF0000895808381E0089584EC8093BC00809108
:100B0000BC0087FFFCCF8091BB00089584E88093F0
:100B1000BC008091BC0087FFFCCF8091BB00089592
:100B200080913C010895EF92FF920F931F93CF9312
:100B3000DF93182FF62EE72E042F80913B01882398
:100B400091F1442381F1812F90E0840F911D813434
:100B500091054CF580ED0E943505812F6CE371E025
:100B60000E9468058823D9F481ED6CE371E00E944E
:100B70005D058823A1F4CF2DDE2D102F7E0105C049
:100B80000E947C05F70181937F011150C9F70E94F3
:100B900086050150C00FD11D888311E001C010E00F
:100BA0000E94600501C010E0812FDF91CF911F915D
:100BB0000F91FF90EF900895EF92FF920F931F9384
:100BC000CF93DF93082FF62EE72E142F80913B0151
:100BD000882341F1442331F1802F90E0840F911D4F
:100BE00081349105FCF480ED0E943505802F6CE383
:100BF00071E00E946805882389F48F2D9E2D9C0149
:100C0000E90188816CE371E00E9468051150882336
:100C100029F421961123A9F711E001C010E00E94E8
:100C2000600501C010E0812FDF91CF911F910F91DE
:100C3000FF90EF900895EF92FF920F931F93DF9331
:100C4000CF9300D0CDB7DEB78C017B018FEFFB01D6
:100C500080830E940205F80180838823C9F481E023
:100C600080933B0180E880933D0180913D018A8320
:100C700087E0BE016E5F7F4F41E00E94DC05882364
:100C8000E9F483E0F801808380913C01F7018083DF
:100C900080E00BC0898187FF07C08F77898380E060
:100CA000B80141E00E94DC0581E00F900F90CF91E8
:100CB000DF911F910F91FF90EF90089580E08E01DA
:100CC0000F5F1F4FB80141E00E949305882311F781
:100CD000EBCF0F931F93DF93CF93CDB7DEB727975B
:100CE0000FB6F894DEBF0FBECDBF8C0180913B01E3
:100CF000882379F180E0BE016F5F7F4F47E00E945B
:100D00009305882331F18F810E94FE00F8018083D2
:100D10008E810E94FE00F80181838D810E94FE0079
:100D2000F80182838C810E94FE008150F801868345
:100D30008B810E94FE00F80183838A810E94FE005D
:100D4000F801848389810E94FE00F801858381E097
:100D500001C080E027960FB6F894DEBF0FBECDBF6E
:100D6000CF91DF911F910F9108950F931F93DF9300
:100D7000CF93CDB7DEB727970FB6F894DEBF0FBE7F
:100D8000CDBF8C0180913B01882369F1F8018581F9
:100D90000E9408018983F80184810E9408018A83E6
:100DA000F80183810E9408018B83F80186810E94EB
:100DB00008018F5F8C83F80182810E9408018D8376
:100DC000F80181810E9408018E83F80180810E94D0
:100DD00008018F8380E0BE016F5F7F4F47E00E9474
:100DE000DC05811181E027960FB6F894DEBF0FBEB7
:100DF000CDBFCF91DF911F910F9108952E98269826
:100E00000895FC0180915D01882309F473C08091ED
:100E10005E01823051F1833009F04BC020916101B5
:100E2000309162018091610190916201232F3327FB
:100E30008095909590702817390709F058C08091D7
:100E400061019091620190709093620180936101C1
:100E50002091610130916201809163019091640160
:100E6000982F8827822B932B20C0209161013091ED
:100E700062018091610190916201232F3327809557
:100E8000909590702817390759F0809161019091E1
:100E9000620180708050914D51F58BE080935E012E
:100EA00080916101909162019070909362018093B2
:100EB000610180915E01808380915F01909160016A
:100EC00092838183809161019091620194838383F5
:100ED00080916501858310926201109261011092E8
:100EE000600110925F011092650181E001C080E015
:100EF00010925D010895982F60914B0170915501FA
:100F0000671738F180915601681718F580915B01D9
:100F1000292F30E04091660150916701882381F0CC
:100F2000862F90E0871B910902C0220F331F8A95FC
:100F3000E2F7422B532B509367014093660151C057
:100F4000440F551F242B352B3093670120936601E6
:100F500048C070915701671738F1809158016817A0
:100F600018F580915B01292F30E040916801509184
:100F70006901882381F0862F90E0871B910902C0C8
:100F8000220F331F8A95E2F7422B532B50936901AE
:100F90004093680126C0440F551F242B352B3093F6
:100FA0006901209368011DC080914C018330C9F410
:100FB0006131B8F06531A8F4892F90E0262F30E038
:100FC0002151304002C0880F991F2A95E2F72091E5
:100FD0006A0130916B01282B392B30936B012093E0
:100FE0006A016F5F60934B01089593B180915D0139
:100FF000882309F0E8C3907480914A01882381F521
:1010000080914701992321F48F5F80934701DBC3CF
:101010008823B9F091E090934A019093480110928F
:1010200049011092690110926801109267011092B3
:1010300066018FEF80934B0190934601109240011F
:10104000C2C380914401909145012FEF8F3F9207D9
:1010500009F4B9C301969093450180934401B3C349
:1010600080914801882309F403C1992349F08091B4
:1010700046018F5F80934601863A08F48BC2A2C175
:1010800020914701822F8551873048F48091460195
:10109000843028F0883018F468E670E0A2C0822F0F
:1010A00085538B3480F4809146018A3128F0813455
:1010B00028F469E770E095C08C3028F0813218F48C
:1010C0006AE870E08EC0822F87528C3048F480919D
:1010D0004601873228F0833318F46BE970E081C051
:1010E000822F8B51813148F4809146018B3128F059
:1010F0008C3218F46CEA70E074C0822F8D518A3003
:1011000048F4809146018E3028F0853118F46DEB5B
:1011100070E067C0822F8750853018F08750893083
:10112000E8F490914601892F8750853018F0875058
:101130008930A0F490933F012C502B3018F09C5034
:101140009B3030F410923E0180E48093400103C054
:1011500081E080933E016EEC70E043C0822F8150AD
:10116000843048F490914601892F80518730B8F13E
:1011700096509530A0F1822F8751883068F4809185
:101180004601873048F08C3038F410923F011092BD
:101190003E0160EF70E025C0822F8A50883048F40D
:1011A00080914601823028F0863018F461E071E0C9
:1011B00018C02350253070F480914601863150F0DC
:1011C000823240F480933F0181E080933E0162E1EE
:1011D00071E007C010924A0160E070E002C06FED5C
:1011E00070E080914A01882331F08CE491E041E184
:1011F00050E00E94EA1710924B0180915C01482F49
:1012000050E080FF1FC080914C018930D9F02091BF
:10121000460180914E01821760F430E090E0880F23
:10122000991F821793072CF056954795842F809528
:1012300007C080913E01882399F456954795842FE5
:1012400081700CC080914C01883051F4809146012E
:101250008051873010F481E001C080E00E947B075C
:1012600081E080934701109246011092480192C19B
:1012700080914901882309F480C1992309F4A9C008
:1012800040914B0160915901461799F480915A01A0
:10129000813079F49091470180915101981708F4B9
:1012A00091C080915201891708F48CC010925A01A4
:1012B00071C1509146015F5F5093460180914C018E
:1012C0008130A1F4593008F44CC04B3008F449C0C7
:1012D0004F5F40935901415080915701480F4F5F34
:1012E0004093580187E08093460173C08F30C9F561
:1012F00080915A018823A9F5252F30E08091500173
:1013000090E0880F991F8217930734F4483020F03B
:101310008AE0809359013FC04A3008F43BC180E124
:1013200080934C0199E09093550181E1809356019F
:1013300081E080935701909358012091680130918A
:101340006901C90180709370892B09F423C130931E
:101350006601109267013070309369012093680133
:1013600019C180915C0180FF1AC0252F30E0809167
:10137000500190E0880F991F8217930784F4242F5F
:1013800030E0862F90E002972817390744F08091CB
:101390005A01882321F481E080935A011AC0563AF9
:1013A00008F4F8C0242F30E0862F90E0019728172A
:1013B000390741F480915A01882321F44F5F40930B
:1013C0004B01E8C010924A01109247011092460169
:1013D000E1C080915C01482F50E080FF6DC080919A
:1013E0004C018930B9F480914B01833098F08630FC
:1013F00088F4809147018C3038F0809146018C3020
:1014000018F081E00E947B0780E00E947B07109229
:101410003E014DC06091470170914E01761708F56D
:10142000262F30E0872F90E0880F991F82179307AF
:10143000C4F056954795842F809581700E947B0754
:1014400080915C0190E09695879581700E947B0762
:1014500080915C0190E096958795817080933E0124
:1014600026C080914D016817F0F07617E0F02091CA
:101470003F0180915001821780F430E090E0880FA6
:10148000991F821793074CF090E080913E018823CA
:1014900009F491E090933E0102C090913E01892FA2
:1014A0000E947B0704C010924A011092460180916D
:1014B000460180933F0144C080914C01833049F53F
:1014C00080914B01803129F580914701835086300E
:1014D00008F04DC090914601973260F0933350F47C
:1014E0001092490110926B0110926A0181E1809380
:1014F0004B0141C08AE080934C0180E18093570109
:1015000080E2809358018093590199509C3068F58E
:1015100014C09091470180914D019817A0F08091DF
:101520004E01891780F02091460180914F012817C4
:1015300050F080915001821730F081E00E947B07CB
:101540001092490118C080915101981780F0809144
:101550005201891760F090914601809153019817CC
:1015600030F080915401891710F080E0E7CF10929D
:101570004A011092460181E005C0992331F480911F
:1015800047018F5F8093470105C081E08093490147
:101590008093460180914A01882309F414C1209167
:1015A0004B0180915901281709F00DC180915A0112
:1015B000882309F008C160916801709169018091E8
:1015C0001401909115018617970769F480914401E1
:1015D00090914501845F914030F4809143018F5F89
:1015E0008093430102C01092430140914C0141306D
:1015F00031F4809143018150823070F408C04A3048
:1016000011F04D3049F48091430180FF05C01092E4
:1016100045011092440193C081E080935D01483000
:1016200029F59B012095309533708091410190916F
:1016300042012817390799F4309369012093680112
:1016400040935E01809166019091670190936001E3
:1016500080935F01309362012093610170C010920A
:101660005D01709342016093410169C04F3021F4E4
:101670006F5F7140B9F50CC0403169F4809166012B
:10168000909167018F3F910569F56E3F710551F5A6
:1016900010925D0154C0423029F5222319F5809142
:1016A000440190914501805B9440D0F480911601F3
:1016B00090911701909367018093660180911401C6
:1016C0009091150190936901809368018091650163
:1016D000816080936501109245011092440102C01F
:1016E00010925D0140935E018091660190916701C7
:1016F0009093600180935F0190931701809316018E
:10170000473069F42091400130E080916801909168
:101710006901822B932B90936901809368018091DA
:1017200068019091690190936201809361018091B9
:101730006A0190916B0190936401809363018091A1
:101740005D018823B1F120916101309162018091A6
:1017500014019091150182179307B9F420915F014C
:1017600030916001809116019091170182179307C3
:1017700061F480914401909145018C5D954028F47D
:1017800080916501816080936501809166019091EF
:1017900067019093170180931601809168019091E1
:1017A00069019093150180931401109245011092E4
:1017B000440110924A01109269011092680110923E
:1017C00047011092460180915D010895DF93CF9308
:1017D0000F92CDB7DEB780E680937C0085E88093DA
:1017E0007A0080917A00806480937A0080917A00F8
:1017F00086FDFCCF80917900898320E030E08981EB
:10180000F901E359FE4F80832F5F3F4F20313105AF
:10181000B1F7898190E090937E0180937D01809162
:101820007D0190917E0124E0880F991F2A95E1F7B0
:1018300090937E0180937D0180917A0080648093F3
:101840007A000F90CF91DF91089580917D01909162
:101850007E0134E0969587953A95E1F78095089555
:1018600080917A0086FD27C04091790080917D01AA
:1018700090917E0130916C01E32FF0E0E359FE4F2F
:101880002081821B910990937E0180937D0140838A
:1018900080917D0190917E01840F911D90937E0136
:1018A00080937D013F5F3F7030936C0180917A009F
:1018B000806480937A000895809187018F5F809380
:1018C000870108950F931F93DF93CF9300D0CDB777
:1018D000DEB70E9410100E942E170E9478010E940D
:1018E0005104CE010196BE016E5F7F4F0E941B0620
:1018F0000E94E60B0E94050D0E94FE060E94A10FA9
:101900000E94DC1178940E94730D01E00E94250C66
:10191000182F16951695169580911801811729F0A4
:10192000812F0E94CC0D1093180190918701809116
:101930001901891709F453C090918701809186019C
:10194000981740F08FE791E00E946906882309F418
:1019500046C004C0809187018093840190911A0150
:1019600080918301981791F08FE791E00E945813BE
:101970008091830180931A019091820180911B01D3
:10198000891721F00093D40190931B0180911901D4
:101990008F3F51F08091870120918401281720F416
:1019A00090918701921B01C090E080918401809307
:1019B00087018091870180931901992329F08091F3
:1019C0008701815F891B03C080918701815F8093BC
:1019D0008601809186018C3310F0109286010E945E
:1019E000E9138FE791E00E94FB01882309F48ECF71
:1019F0008FE791E00E94B506809184018093870172
:101A00008FE791E00E94581381CF5E98569A83E049
:101A100084BD85BD8093B00084E08093B1005D9863
:101A2000559A5B98539A08955E9884B58F7384BDD8
:101A30005D9884B58F7C84BD5B98E0EBF0E080819D
:101A40008F7C808310928801089520918A0130E074
:101A50002F5F3F4F809390016093910140939201DB
:101A600090E0FC01E29FC001E39F900DF29F900D7A
:101A70001124892F809587BD70E0629FC001639F0C
:101A8000900D729F900D1124892F809588BD50E094
:101A9000429FC001439F900D529F900D1124892FAA
:101AA00080958093B400089580918B01882391F4F0
:101AB000E0911A0280918901E80FE0320CF0EFE129
:101AC000E7FDE0E0FF27E7FDF095ED5DFE4FE491D7
:101AD000E0938A018091900160919101409192017F
:101AE0000E94250D089584B5806C84BD84B5806303
:101AF00084BDE0EBF0E080818063808381E08093AF
:101B000088010E94540D089580918801882319F05E
:101B10000E94140D08950E94730D0E94540D0895A3
:101B2000FC01DB01809190018083809191018C9375
:101B300080919201FA0180830895803208F08FE14C
:101B4000603208F06FE1403208F04FE180938D0180
:101B500060938E0140938F01E82FF0E0ED5DFE4F22
:101B60008491E62FF0E0ED5DFE4F6491E42FF0E00C
:101B7000ED5DFE4FE4914E2F0E94250D0895FC016E
:101B8000DB0180918D01808380918E018C93809107
:101B90008F01FA0180830895803208F08FE18093ED
:101BA0008C01E82FF0E0E55EFD4F80818093890194
:101BB0000E94540D089580918801882389F0309106
:101BC0001A02832F992787FD909520918901820F12
:101BD000911D4F972CF43F5F30931A020E94540DD1
:101BE000089580918801882391F030911A02832F03
:101BF000992787FD909520918901820F911D1816D4
:101C000019062CF4315030931A020E94540D089595
:101C100091E090938B0180938A010E94540D089566
:101C200010928B010E94540D0895EF92FF920F9332
:101C3000DF93CF9300D0CDB7DEB7062F081B02305D
:101C4000A0F1282F30E03A832983F901E55EFD4FAA
:101C50002081332727FD3095F22EEE2480E890E096
:101C6000E80EF91EE62FF0E0E55EFD4F908180E082
:101C7000921B602F70E00E94D717AB01E981FA81B7
:101C8000E45EFD4F69817A816B5B7F4F0250600F8C
:101C9000711D68527E4FE40EF51E8F2D992787FD2A
:101CA0009A958193E617F707B1F70F900F90CF91B0
:101CB000DF910F91FF90EF9008952F923F924F92F6
:101CC0005F927F928F929F92AF92BF92CF92DF925C
:101CD000EF92FF920F931F93CF93DF9380911A029D
:101CE000882309F4F4C080908901880E8FE188155B
:101CF00010F430E2832E70908C01C72DD0E0FE01ED
:101D0000E55EFD4F8082219721E0A22EB12CC12CEF
:101D1000D12C0C2E04C0AA0CBB1CCC1CDD1C0A94BC
:101D2000D2F72196E0903B02F0903C0200913D02F8
:101D300010913E02772D715091E0292E312C412CCB
:101D4000512C772011F460E013C0672FA601950194
:101D500005C056954795379527956150DA01C90119
:101D60008E219F21A023B1230097A105B10589F3FE
:101D7000262F30E0F901E55EFD4F80818816B8F02E
:101D80002196B1E0AB2EB12CC12CD12C0C2E04C06D
:101D9000AA0CBB1CCC1CDD1C0A94D2F72197772D12
:101DA0007F5FA1E02A2E312C412C512C16C080825D
:101DB000662339F2D201C101062E04C0880F991F93
:101DC000AA1FBB1F0A94D2F780959095A095B09555
:101DD000E822F9220A231B23B4CF8EE1871518F4D9
:101DE000FFE19F2E13C0972EA601950105C0220F7B
:101DF000331F441F551F9394DA01C9018E219F217F
:101E0000A023B1230097A105B10589F3292D30E066
:101E1000F901E55EFD4F80818815B8F480828EE17E
:101E20008915D8F2D201C101092C04C0880F991F6D
:101E3000AA1FBB1F0A94D2F780959095A095B095E4
:101E4000E822F9220A231B23C8CFE0923B02F0923A
:101E50003C0200933D0210933E02862F672D0E94A4
:101E6000150E872D692D0E94150E81E090E0A0E0EF
:101E7000B0E004C0880F991FAA1FBB1FCA95D2F7F4
:101E800020913B0230913C0240913D0250913E0234
:101E9000822B932BA42BB52B80933B0290933C0277
:101EA000A0933D02B0933E028092890110921A02E3
:101EB0000E94540D0E94840D88E893E128EC30E0E4
:101EC000F9013197F1F70197D9F70E94840DDF915D
:101ED000CF911F910F91FF90EF90DF90CF90BF9027
:101EE000AF909F908F907F905F904F903F902F90FA
:101EF00008959B01AC01BB27A52F942F832F9EBD76
:101F00000DB407FEFDCF8EBD0DB407FEFDCF2EBD77
:101F10000DB407FEFDCF2A982A9A089584B18C62E9
:101F200084B9249885B1846185B988E58CBD8DB567
:101F300081608DBD60E070E080E090E00E94790FEC
:101F400008958FE193E0909387008093860082E06C
:101F50008093800089E18093810080E280936F000C
:101F600008951F920F920FB60F9211242F933F9353
:101F70004F935F936F937F938F939F93AF93BF9391
:101F8000EF93FF930E94F507809197018F5F8093F5
:101F900097018A30A1F510929701809196018F5F89
:101FA000809396018A3059F5109296010E9487011C
:101FB0000E943713809195018F5F809395018A303D
:101FC000F1F4109295010E9420130E940703809162
:101FD00094018F5F809394018A3089F41092940168
:101FE0000E945C0C0E94300C0E949612809193011A
:101FF0008F5F809393018C3311F410929301FF91C2
:10200000EF91BF91AF919F918F917F916F915F9170
:102010004F913F912F910F900FBE0F901F901895E9
:10202000E1ECF0E08081886980831092C50083E351
:102030008093C4000895982F8091C00085FFFCCF45
:102040009093C6000895FC0107C08091C00085FFF1
:10205000FCCF31969093C60090819923B1F70895F3
:102060009C0106C08091C00085FFFCCF9093C60004
:10207000F9012F5F3F4F94919923A1F708951F9283
:102080000F920FB60F9211242F938F939F938091ED
:10209000C600823561F428E088E190E00FB6F8943C
:1020A000A895809360000FBE20936000FFCF9F91A2
:1020B0008F912F910F900FBE0F901F9018956CE08D
:1020C0000E94B717692F992309F46CE0862F90E0DE
:1020D000099621E030E040E050E004C0220F331FB9
:1020E000441F551F8A95D2F7613009F43260B90157
:1020F000CA010895FF920F931F93CF93DF93F82E99
:102100001091AC0111505091CB014091C901309117
:10211000C801C12FDD27C7FDD095C756DE4F212F3F
:10212000FE0101E061E01AC08081813011F4952F39
:1021300009C0863011F4942F05C0853011F090E06D
:1021400001C0932F002319F480E090E004C080E0E8
:10215000911181E08627082F215031972F1524F700
:10216000002369F40EC08881843011F40E94100E9F
:102170008091AC0181508093AC01115021971F15C3
:1021800094F7802FDF91CF911F910F91FF900895C9
:10219000DF93CF9300D00F92CDB7DEB78091C5010A
:1021A00081508093C50190911702891708F18091A1
:1021B000C3019091C401019661E076E00E94C317CB
:1021C0008093C3019093C401BE016F5F7F4FAE0146
:1021D0004E5F5F4F9E012D5F3F4F0E9447178981E1
:1021E0006A814B810E94250D809117028093C50161
:1021F0000F900F900F90CF91DF910895DF93CF93C1
:10220000CDB7DEB727970FB6F894DEBF0FBECDBFB0
:10221000282F9091AC01992349F0E92FFF27E7FD82
:10222000F095E856FE4F8081821779F0E92FFF275D
:10223000E7FDF095E756FE4F2083E22FF0E0ED55E5
:10224000FE4F90839F5F9093AC01273001F5ACEC7B
:10225000B1E0FB0187E001900D928150E1F710920F
:10226000D30181E08093CB018091CF0188508C30E5
:1022700010F48FEF01C082E30E94080E8CEC91E015
:102280000E94610420E03EEF4FE750E038C021306B
:1022900021F4CB010E94BC1144C02630C1F4FE01E0
:1022A000319687E0DF011D928A95E9F7809111024E
:1022B0008C83809112028D831092CA0186E067E0C0
:1022C000AF010E949A1181E08093C9012AC0253094
:1022D00051F485E067E044EB51E00E949A1181E0FF
:1022E0008093C8011EC0283069F48AE08093BD0144
:1022F000862F0E945F1020E030E040E050E00E9416
:10230000E4030FC0222349F460E070E080E09FE026
:1023100020E030E040E05FE0F2CF233011F40E9493
:10232000C81027960FB6F894DEBF0FBECDBFCF9171
:10233000DF9108951F93CF93DF93162FEA018F3F0C
:1023400011F4E0E008C0E82FFF27E7FDF095ED5518
:10235000FE4FE081EF5F8091AC01E81729F08E2FEE
:102360000E947A10882321F0812FBE010E94FE1066
:10237000DF91CF911F9108950F931F938C0180914E
:10238000100290E0FC01EE0FFF1FE80FF91FE8526A
:10239000FE4F84A565A546A50E949D0D012B49F021
:1023A0004091100250E04F5F5F4F81E068E00E9473
:1023B0009A111F910F910895809118028F7760E014
:1023C00070E00E94FE108091180287FF05C084E033
:1023D00060E070E00E94FE1080E060E070E00E942B
:1023E000FE10219A399A529A0895EF92FF920F9314
:1023F0001F93DF93CF93CDB7DEB727970FB6F8942F
:10240000DEBF0FBECDBF182FF62EE72EE82FF0E06F
:10241000ED55FE4F0081802F0E947A1084EB91E0F1
:102420000E94610420E030E040E050E00E94E403BC
:10243000E02FFF27E7FDF095E856FE4F80818630BC
:1024400009F04DC0173009F064C0DE0111968F2DE0
:102450009E2D9C01F90187E001900D928150E1F7DA
:102460009091CA01E92FF0E0EE0FFF1FDF01A852A3
:10247000BE4F8C81D9968C93EE5EFD4F8D8180830B
:102480009F5F9093CA019230A1F4809115028F5FF3
:102490000E945F109B01AC010E94E4038091150231
:1024A000882321F081E08093980133C01092980135
:1024B00030C0E92FF0E0EE0FFF1FDF01A852BE4F42
:1024C000D9968C918C83EE5EFD4F80818D8386E062
:1024D00067E0AE014F5F5F4F0E949A111AC08530CE
:1024E000C1F41730B1F48F2D9E2D0E94B506A4EBD8
:1024F000B1E08F2D9E2D9C01F90187E001900D9296
:102500008150E1F71092C80185E060E070E00E9420
:10251000F51127960FB6F894DEBF0FBECDBFCF9151
:10252000DF911F910F91FF90EF9008951092D701C6
:102530008091B001893718F48F5F8093B00180914A
:10254000B1018B3018F48F5F8093B1018091B0019D
:10255000883729F488ED91E069E60E94051780919B
:10256000AE018230E9F0809198018823C9F4E091AE
:10257000AC01FF27E7FDF095E856FE4F80818823E8
:10258000D1F48091BB018F3FB1F08F5F8093BB018D
:10259000873089F480E060E070E00E94F5110895D2
:1025A00080911502882339F0809198010E940D04D2
:1025B00081E08093D7010895982F8091A701E82F9B
:1025C000F0E0E856FE4F923019F58091C7018F5F19
:1025D0008093C701853098F161E070E080E090E081
:1025E0000090C60104C0660F771F881F991F0A94C8
:1025F000D2F720E030E040E050E00E94E403809118
:10260000C6018F5F8F718093C6011092C701089534
:10261000983069F48091BD0181508093BD01882379
:1026200071F488E060E070E00E94F5110895943044
:1026300011F49081C8CF933011F40E94C81008950E
:10264000E091AC01FF27E7FDF095E856FE4F808151
:102650000E94DC128091AD01882319F08150809393
:10266000AD018091B3018F5F8093B3010895E09134
:10267000AC01FF27E7FDF095E856FE4F80818430DE
:10268000B1F48091C2018F5F8093C20190911602D4
:10269000891768F08091C1010E949E170E94080E60
:1026A0008091C1018F5F8093C1011092C201089592
:1026B000009709F46FC0A4EBB1E0FC0187E0019042
:1026C0000D928150E1F78091B1018A3008F462C027
:1026D0002091B7017091B80150911102309112020E
:1026E00040911302E0911402521748F0251719F097
:1026F00080E090E006C080E090E0731710F081E089
:1027000090E0682F241718F421E030E00CC0241763
:1027100019F020E030E007C080E090E07E1710F470
:1027200081E090E09C01451748F4662321F480E0A5
:1027300090E0222379F081E090E00CC0662319F448
:1027400080E090E007C090E0222309F491E081E06E
:102750009827892F9091AE01882361F49330D1F0AE
:102760001092AE0185B19091AF01892B85B90E947D
:10277000730D10C0992371F482E08093AE0185B18E
:1027800082708093AF01299880911502882311F4FB
:102790000E94140DE091AC01FF27E7FDF095E8568B
:1027A000FE4FE081EE23A1F0E83091F0E23081F0BD
:1027B000E53071F0E63061F0E73051F08091AE0124
:1027C000823031F084EB91E00E9461040E94CF02DC
:1027D00008952F923F924F925F926F927F928F92C5
:1027E0009F92AF92BF92CF92DF92EF92FF920F93A0
:1027F0001F93DF93CF93CDB7DEB72A970FB6F89428
:10280000DEBF0FBECDBFCE0104960E940107882314
:1028100009F4D2C28091AD01882309F0DDC283E0C2
:102820008093AD014091AC01E42FFF27E7FDF095C7
:10283000E856FE4F80818823F1F52091BC014D813F
:102840005E81222311F18091D8019091D9018417E2
:10285000950729F5E22FF0E0EE0FFF1FE852FE4F3B
:102860008F81988591838083253159F488ED91E09B
:1028700061E40E94051780E060E070E00E94F511BD
:10288000ABC22F5F2093BC010AC08FEF8093BB01C6
:102890005093D9014093D80181E08093BC0180918D
:1028A000BC010E945F109B01AC015F60CA01B901CD
:1028B0000E94E40391C22091D8013091D9018D8109
:1028C0009E812817390709F087C22F813885EAEDE4
:1028D000F1E0DD2405C0D394329655E1D51629F1F7
:1028E0008081918182179307B1F7DD20F1F4809107
:1028F000AE01823030F483E08093AE010E94140D6B
:102900000EC0833019F41092AE0103C081E08093B1
:10291000AE010E94730D80E090E00E94581388ED94
:1029200091E069E60E94051737C2C42ECA94AC2C08
:10293000BB24A7FCB09489E991E0A80EB91E80E001
:102940009D2D93509A879924939412E0412E512CF7
:102950004C0E5D1EB3E02B2E312C2C0E3D1E612C37
:10296000A6E07A2EF3E08F2E87C1F50180818730B3
:1029700009F098C0E091AA01F0E0E856FE4FE0812E
:10298000E53021F4F5E0DF16D1F405C0E630B9F406
:1029900026E0D216A1F48091D301882319F49092F5
:1029A000D3015DC0813009F05AC01092D10110925C
:1029B000CB010E94100E87E06CEC71E03FC13A85BC
:1029C000323008F04CC043E0D41611F04FEF01C094
:1029D00041E08091D3018823F1F44F3F41F480918D
:1029E000CF01882321F457E15093CF0109C0809192
:1029F000CF01840F8093CF01883110F01092CF0166
:102A00008091CF0188508C3010F48FEF01C082E3A9
:102A10000E94080E24C0813011F5E63021F48FE0C9
:102A2000489F402D112447FF11C02091D00130E074
:102A3000842F992787FD9095909581959F4F281712
:102A4000390724F4445C4093D00109C08091D0013F
:102A5000840F8093D0018C3310F01092D0018091BC
:102A6000D301882341F0EEEFEE2EE1E0FE2E012DA2
:102A7000EFE01E2F06C0E12C7EEFF72E7FE3072F3D
:102A8000112D8CEC91E00E94610420E030E040E4E4
:102A900050E0E22AF32A042B152BA80197010E948B
:102AA000E403E1C0813009F08CC038E0D31659F45A
:102AB000809110028F5F83708093100281E090E01C
:102AC0000E94BC11D0C04CE0D41619F41092BE0183
:102AD000CAC05DE0D51619F48093BE01C4C08EE073
:102AE000D81621F492E09093BE01BDC0EFE0DE164F
:102AF00021F4F4E0F093BE01B6C02A85223008F03C
:102B0000B5C033E0D31611F02FEF01C021E0909152
:102B1000BE019430E0F480911002889DF0011124F0
:102B2000EC5FFD4FDF01A90FB11D8C912F3F29F400
:102B3000882339F081508C9304C08F3110F4280F12
:102B40002C938081618142810E949D0D8CC02F3F1A
:102B500059F48091BF019091C0010A9798F4709246
:102B6000C0016092BF011CC0213061F48091BF019F
:102B70009091C001865F954028F01092C00110929C
:102B8000BF010EC05AE02502C00111242091BF01EF
:102B90003091C001820F931F9093C0018093BF01B9
:102BA0008091BF019091C001BE016F5F7F4FA20174
:102BB00091010E94471789816A814B810E94250DEE
:102BC00052C0843099F48A85823008F04FC093E077
:102BD000D91609F0F5C080911602823008F443C07E
:102BE000815001C08F5F809316023DC0863049F549
:102BF0008091CA018230B9F5EA85E230A8F480916B
:102C000015028925809315028F5F0E945F109B013A
:102C1000AC010E94E40380911502882319F0909280
:102C2000980102C010929801F6E0DF16E1F41092CC
:102C3000C9011092980186E060E070E00E94F511F1
:102C400012C0833099F42A85223080F433E0D31601
:102C500009F0BCC080911702823028F0815001C079
:102C60008F5F8093170281E090E002C080E090E0E7
:102C7000CA940894A108B108C7FC04C0882309F4C9
:102C800074CE8AC0882309F087C041E0D41619F4B5
:102C90000E94DB0D81C052E0D51619F40E94F10D9F
:102CA0007BC088E0D81629F48FEF61E041E050E066
:102CB0005BC095E0D91611F485E036C0E6E0DE167B
:102CC00011F486E031C0FAE0DF1689F4E091AC013E
:102CD000FF27E7FDF095E856FE4F8081823029F40A
:102CE00060E070E00E94F51157C082E01DC020E155
:102CF000D21619F40E945D0E4FC039E0D316C9F404
:102D00008091AC01E82FFF27E7FDF095E856FE4FD4
:102D1000E081E43021F481500E947A103DC0E1301E
:102D200011F0E330C9F584E060E070E00E94FE102D
:102D300033C044E1D41689F4609119026F5F637067
:102D40006093190270E06F5F7F4F88E00E94FE1071
:102D500080E090E00E9458131FC05BE0D51639F464
:102D60008FEF63E040E050E00E949A1115C087E0C9
:102D7000D81621F481E08093D4010EC091E1D916D8
:102D800011F4199A09C0E2E1DE1611F4319A04C077
:102D9000F3E1DF1609F54A9A909199019093180290
:102DA00080919A01843019F49068909318021092DF
:102DB000B0011092B10110C085E18093B2010CC046
:102DC00080911602853008F40DCF4DCF8091170207
:102DD000883008F445CF47CF2A960FB6F894DEBF67
:102DE0000FBECDBFCF91DF911F910F91FF90EF905C
:102DF000DF90CF90BF90AF909F908F907F906F901B
:102E00005F904F903F902F900895EF92FF920F9315
:102E10001F93CF93DF93E62E28ED31E0F82EF21AC0
:102E2000EA94EF0C12C00F2D10E0E801C050D04022
:102E3000CE010E94031808521E4FF80160818617C8
:102E400019F0CE010E940B18F394EF1460F7DF9194
:102E5000CF911F910F91FF90EF90089588ED91E031
:102E600060E070E049E650E00E94F31780913F0275
:102E70008C3021F480914002893641F088ED91E058
:102E800063E471E049E650E00E94EA170895CF93A9
:102E9000DF93EB01FA01D9019C0120503C4FAC01BA
:102EA00040505E4F66E02030360718F09C012050FD
:102EB000324066E04030560710F0405056408F3F99
:102EC000910571F068F063E08030960710F48FEFA1
:102ED00007C064E08030960710F080E001C0809564
:102EE00080832F3F310509F010F4822F0EC083E05C
:102EF0002030380710F48FEF08C064E02030360728
:102F000010F080E002C0822F80958C934F3F5105D6
:102F100009F010F4842F0EC083E04030580710F4FD
:102F20008FEF08C064E04030560710F080E002C028
:102F3000842F80958883DF91CF910895805887FDF5
:102F4000809590E080589F4F889F9001899F300D19
:102F5000989F300D1124232F3327AC01249FC001EB
:102F6000259F900D349F900D1124892F0895991B52
:102F700079E004C0991F961708F0961B881F7A9570
:102F8000C9F780950895AA1BBB1B51E107C0AA1F72
:102F9000BB1FA617B70710F0A61BB70B881F991FFA
:102FA0005A95A9F780959095BC01CD01089597FB9E
:102FB000092E07260AD077FD04D0E5DF06D00020D1
:102FC0001AF4709561957F4F0895F6F79095819565
:102FD0009F4F0895FB01DC0102C005900D92415006
:102FE0005040D8F70895DC01CB01FC01F999FECFE0
:102FF00006C0F2BDE1BDF89A319600B40D92415081
:103000005040B8F70895F999FECF92BD81BDF89A66
:10301000992780B50895262FF999FECF1FBA92BD42
:1030200081BD20BD0FB6F894FA9AF99A0FBE0196A9
:063030000895F894FFCFA3
:10303600010204080A14285007212210868580A15F
:0C304600A2180641FFFFFFFFFFFFFFFF85
:00000001FF
