:100000000C943E010C945B010C945B010C945B011D
:100010000C945B010C945B010C945B010C949803B1
:100020000C945B010C94FC030C941D0F0C945B016D
:100030000C945B010C945B010C945B010C945B01D0
:100040000C945B010C945B010C945B010C945B01C0
:100050000C945B010C945B010C945B010C945B01B0
:100060000C945B010C945B01040000000070000024
:100070000018000000040000000200000001000061
:100080000000040000C0000000001000000080001C
:1000900000002000000040000200000822000000D4
:1000A000820000002900000009000008080000008C
:1000B0000A0000082A000000810000002100000062
:1000C0000100000802000008220000008200000079
:1000D0004200000009000008080000000A000008B3
:1000E0004100000081000000210000000100000824
:1000F000020000082200000080000000290000002B
:1001000009000008080000000A0000082A0000009A
:10011000900000002100000001000008020000081B
:1001200022000000800000004200000009000008DA
:10013000080000000A0000084100000090000000D4
:100140002100000001000008010A0E040804080450
:10015000080F14000F140001000202090919020916
:1001600002090010102020010100020209091902F1
:10017000090209000000000001010003030809143E
:1001800003080207001015252501010004040D0FC6
:1001900026040D040D0C18000C18010100050108BF
:1001A00005140108010700101C2830010100070791
:1001B0000B070B010101010207070D0D00000108EB
:1001C000010410160104060A0005050F0F010000C6
:1001D000090306030601010101050D0D15150000B7
:1001E000030D0A110205030709110000000A0A01A4
:1001F00000000F03070307010101010000010B11BB
:100200000001030102030405060708090A0C0E1089
:100210001215181C20252A30373F4853606F8199EA
:10022000B6D8FF807B1300180019000A000B0009E4
:10023000001500000001001E000300450008001F1B
:100240000000001F0000001F1F1F1F000000000013
:100250000101010102000506070808090A0B0C0D3F
:100260000D0E0F1011121213141516171718191A54
:100270001B1C1C1D1E1F010000800C5911241FBED9
:10028000CFEFD4E0DEBFCDBF11E0A0E0B1E0E8EFFA
:10029000FCE202C005900D92AA32B107D9F712E034
:1002A000AAE2B1E001C01D92A333B107E1F70E94B9
:1002B00076150C947A160C940000982F92959F70E6
:1002C0008F702AE0929F800D112408959DEC899FE4
:1002D00090011124932F969596959695292F229506
:1002E000207F3AE0939F80191124822B0895FB010F
:1002F000138290E2918390839DEC899F9001112459
:10030000232F3327269526952695805D56EF259F2A
:10031000800D112482832223A1F06DEC629FC00125
:10032000639F900D1124892F869586958695922F2F
:10033000905D859F900D11249183882311F0805D3D
:1003400080830895FB0112829DEC899F9001112406
:10035000932F96959695969526EF929F202D112492
:10036000992311F0905D01C090E29083805D820F2F
:100370008183089510922C0110922A0110922D0170
:1003800010922B01109234018091D70181608093EB
:10039000D70110922E0110922F011092300110926D
:1003A00031011092320110923301089527982F984D
:1003B000549A5C988091D7018D7F84608093D70197
:1003C0000E94BA011092350108952091D70122FFB1
:1003D00074C021FD58C01F9906C0809136018F5FFF
:1003E0008093360105C0809137018F5F809337017C
:1003F0004091360130913701832F90E0840F911D99
:10040000843691050CF459C0809138018F5F809338
:100410003801442311F031111AC0843179F510925A
:100420003801809139018F5F809339011F9B02C091
:100430002F9801C02F9A809139018E31F9F42F9AAB
:100440008091D70182608B7F8093D70117C08E3156
:1004500021F426602093D7010895822F88703417E5
:1004600030F4882359F010923801277F05C081119C
:1004700005C01092380128602093D70110923601F0
:100480001092370108958091D6018823B1F083B18D
:1004900023FF02C0807804C08095881F8827881FAA
:1004A000882339F080912A018F5F80932A015C981C
:1004B000089521602093D7015C9A0895FC018091F2
:1004C000D7018570853009F0C9C080912A01873035
:1004D00008F476C080912A018E3428F480912A0194
:1004E000803608F06DC080912A018A3A28F0809108
:1004F0002B018A3309F090C080912B018B3308F0D7
:100500008BC080912B01853108F455C080912A0160
:100510008E3408F458C080912A01803608F053C008
:1005200080912A018735D8F480912C018F5F8093C8
:100530002C0180912B018C3191F080912B01833221
:1005400071F0E0913401F0E0E65DFE4F8481A0910E
:100550002D01B0E0A75FBE4F9C91890F84838091ED
:100560002D018F5F80932D0180912B018C3121F023
:1005700080912B01833221F480912C0180FD4CC0AD
:1005800080912B018C3181F080912B01833261F0BD
:1005900080912B01893241F080912B018C3221F026
:1005A00080912B01813339F4809134018F5F8093E6
:1005B000340110922D0180912B018F5F80932B01CC
:1005C00010922A0146C080912A018A3A08F441C05B
:1005D00080912A018B3B28F480912C018F5F8093BE
:1005E0002C0180912B018A33B9F480912C0180FD7C
:1005F00013C040912E0180912F019CE3899F400DF3
:1006000011248091350190E00196242F30E082176B
:10061000930729F0409335010E94BA011AC0158250
:1006200080912E01848380912F01838380913001FA
:100630008283809131018683809132018183809110
:10064000330180830E94BA011092D6015C9881E048
:1006500008958091D7018E7F8093D70180E008951F
:100660000F931F93262337234823592320933A01BE
:1006700030933B0140933C0150933D0100913E017A
:1006800010913F01209140013091410100934201BE
:1006900010934301209344013093450160933E0140
:1006A00070933F0180934001909341011092D801D3
:1006B0001F910F910C9472040F931F9310923A01A3
:1006C00010923B0110923C0110923D0100913E01BD
:1006D00010913F012091400130914101009342016E
:1006E00010934301209344013093450160933E01F0
:1006F00070933F0180934001909341018FE180937B
:10070000D801E091D801F0E0ED5FFD4FE491E330D6
:1007100048F0E091D801F0E0ED5FFD4FE49182E018
:100720008E1B01C08FEF8093B3001F910F9108952E
:100730001F920F920FB60F9211242F933F934F9356
:100740005F936F937F938F939F93AF93BF93EF9339
:10075000FF938091D8018230A0F1609142017091A5
:10076000430180914401909145010E94720480915F
:1007700046018F5F809346019091D901992319F02A
:100780008F3049F502C08E3131F5109246018091CB
:10079000D80181508093D801E091D801F0E0ED5F5D
:1007A000FD4FE491E33048F0E091D801F0E0ED5FD7
:1007B000FD4FE49182E08E1B01C08FEF8093B30068
:1007C0000AC060913E0170913F018091400190917B
:1007D00041010E947204FF91EF91BF91AF919F91EF
:1007E0008F917F916F915F914F913F912F910F90DA
:1007F0000FBE0F901F9018951F920F920FB60F9279
:1008000011242F933F934F935F936F937F938F9315
:100810009F93AF93BF93EF93FF938091D801882369
:1008200051F060913E0170913F01809140019091A3
:1008300041010E947204FF91EF91BF91AF919F918E
:100840008F917F916F915F914F913F912F910F9079
:100850000FBE0F901F9018950F931F9300913A01B0
:1008600010913B0120913C0130913D010115110592
:100870002105310521F18091D801811120C080919D
:100880000001815080930001811119C060913E01E7
:1008900070913F0180914001909141016027712743
:1008A0008227932760933E0170933F01809340011C
:1008B000909341010E94720487E0809300011F9190
:1008C0000F9108950E94FC0E219A209A579A569AE9
:1008D000299828985F985E98E0E7F0E0808183602F
:1008E00080830895CF92DF92EF92FF926B017C019B
:1008F0000E94E60EF0FE02C0299A01C02998F1FE7E
:1009000002C0289A01C02898F2FE02C05F9A01C076
:100910005F98F3FE02C05E9A01C05E98FF90EF9070
:10092000DF90CF9008950F931F93282F9091470148
:100930009F5FE92FE770E093470190FF18C0E695AD
:1009400084E0E89FF0011124EF5EFE4F6081718129
:1009500082819381222371F0E0E7F0E00591159107
:1009600025913491602B712B822B932B03C060E077
:1009700070E0CB011F910F910C945C03CF92DF923A
:10098000EF92FF920F931F93CF93DF93FC01D381DC
:10099000848165E00E941716C82F80910B0280FFAA
:1009A00006C0CC2309F43AC0C63041F402C0CC23BF
:1009B000A9F140E050E060E074E003C040E050E0A6
:1009C000BA018695EC2FF0E03197A82FB0E02BE02C
:1009D000829FE00DF11D1124EE0FFF1FEE0FFF1F90
:1009E000E856FF4F0591159125913491042B152B55
:1009F000262B372B41E050E00C2E02C0440F551F30
:100A00000A94E2F7AA0FBB1FAF5DBE4F6D917C91B8
:100A100046235723452B31F0DF5F04C000E010E090
:100A200022E034E0943011F4286002C0933011F4D5
:100A3000216002C0923011F4316001C09111326026
:100A40008D2F6CE00E94171684E0989FF00111240E
:100A5000E859FF4FC590D590E590F490C02AD12A6F
:100A6000E22AF32AD13011F0DD3021F4C11102C0A5
:100A7000E894D6F8B601C701DF91CF911F910F918D
:100A8000FF90EF90DF90CF90089580914801811101
:100A900042C045983D9844983C988FEC97E0019768
:100AA000F1F700C00000359B2AC034991DC03D9A63
:100AB000EFECF7E03197F1F700C0000089E03D98D6
:100AC000EFECF7E03197F1F700C00000349B02C073
:100AD0003D980AC03D9AEFECF7E03197F1F700C07E
:100AE0000000815061F7F4CF3D988FEC97E00197BB
:100AF000F1F700C00000349B04C080E003C081E037
:100B000001C082E01092B90090E29093B80091E0A9
:100B100090934801089580E0089594EA9093BC0072
:100B20009091BC0097FFFCCF9091B900987F9830CE
:100B300029F0903119F0FB01908312C08093BB0023
:100B400084E88093BC008091BC0087FFFCCF80913B
:100B5000B900887F883131F0803421F0FB01808337
:100B600081E0089580E0089524EA34E844E9209380
:100B7000BC009091BC0097FFFCCF9091B900987F8A
:100B8000983011F0903199F78093BB003093BC00FE
:100B90009091BC0097FFFCCF9091B900987F903264
:100BA00011F0983539F44093BC009091BC0094FD4D
:100BB000FCCFDDCF08950C948D0584E98093BC00B3
:100BC0008091BC0084FDFCCF08958093BB0084E835
:100BD0008093BC008091BC0087FFFCCF8091B9005E
:100BE000887F883221F0FB01808381E0089580E0D6
:100BF000089584EC8093BC008091BC0087FFFCCFFB
:100C00008091BB00089584E88093BC008091BC0073
:100C100087FFFCCF8091BB00089580914C0108951F
:100C2000EF92FF920F931F93CF93DF931F92CDB755
:100C3000DEB7F82E162F072F80914D01882361F122
:100C4000442351F1242F30E02F0D311D2134310583
:100C50001CF580ED49830E94B4056CE471E08F2D92
:100C60000E94E5054981882361F080E010C06CE4B2
:100C700071E0F70181917F010E94E505882321F051
:100C8000F4CFE12EF02E140F1E11F1CF81E08983F5
:100C90000E94DD05898101C080E00F90DF91CF9136
:100CA0001F910F91FF90EF9008950F931F93CF9393
:100CB000DF93CDB7DEB727970FB6F894DEBF0FBE30
:100CC000CDBF8C0180914D01882371F1F8018581A0
:100CD0000E9466018983F80184810E9466018A83EB
:100CE000F80183810E9466018B83F80186810E944E
:100CF00066018F5F8C83F80182810E9466018D837B
:100D0000F80181810E9466018E83F80180810E9432
:100D100066018F8347E0BE016F5F7F4F80E00E94D6
:100D2000100691E0811101C090E0892F27960FB63F
:100D3000F894DEBF0FBECDBFDF91CF911F910F9111
:100D40000895CF92DF92EF92FF920F931F93CF936C
:100D5000DF931F92CDB7DEB7182F6B01F42E809171
:100D60004D01882399F1442389F1242F30E0210F8C
:100D7000311D2134310554F580ED0E94B4056CE439
:100D800071E0812F0E94E505882311F080E019C0F1
:100D90006CE471E081ED0E94DB058111F7CF8601E3
:100DA000EF2C05C00E94F905F80181938F01EA94A8
:100DB000C9F7FA94CF0CD11C0E940306F601808378
:100DC00081E089830E94DD05898101C080E00F9068
:100DD000DF91CF911F910F91FF90EF90DF90CF9017
:100DE00008950F931F93CF93DF93CDB7DEB7279767
:100DF0000FB6F894DEBF0FBECDBF8C0180914D01C0
:100E0000811102C080E02EC047E0BE016F5F7F4FBE
:100E100080E00E94A1068823A9F38F810E945D01D2
:100E2000F80180838E810E945D01F80181838D81AC
:100E30000E945D01F80182838C810E945D018150D6
:100E4000F80186838B810E945D01F80183838A818A
:100E50000E945D01F801848389810E945D01F8018F
:100E6000858381E027960FB6F894DEBF0FBECDBF15
:100E7000DF91CF911F910F910895EF92FF920F9301
:100E80001F93CF93DF9300D0CDB7DEB77C018B01EA
:100E90008FEFFB0180830E944505F701808381115C
:100EA0002FC081E080934D0180E8809349018091BB
:100EB0004901898341E0BE016F5F7F4F87E00E9457
:100EC00010068823B1F041E0BE016E5F7F4F80E0E5
:100ED0000E94A1068823B1F08A8187FF13C08F7713
:100EE0008A8341E0BE016E5F7F4F80E00E94100662
:100EF00009C083E0F701808380914C01F801808371
:100F000080E001C081E00F900F90DF91CF911F91A1
:100F10000F91FF90EF90089560915F0170916F01C4
:100F2000671730F190917001691710F540917501C4
:100F300090E020915D0130915E01442381F0462FC5
:100F400050E0471B510902C0880F991F4A95E2F7EC
:100F5000822B932B90935E0180935D014FC0220FF3
:100F6000331F282B392B30935E0120935D0146C03F
:100F700070917101671730F190917201691710F546
:100F80004091750190E020915B0130915C01442318
:100F900081F0462F50E0471B510902C0880F991F6E
:100FA0004A95E2F7822B932B90935C0180935B012F
:100FB00025C0220F331F282B392B30935C0120933F
:100FC0005B011CC0909166019330C1F46131B0F0B7
:100FD0006531A0F490E0262F30E02151310902C0A4
:100FE000880F991F2A95E2F72091770130917801B7
:100FF000282B392B30937801209377016F5F609312
:101000005F0108952E9826980895FC01809156015D
:10101000882309F457C080915501823049F183300B
:1010200009F052C0809151019091520120915101DB
:1010300030915201892F99272095309533278217B7
:101040009307E1F580915101909152019927909376
:1010500052018093510120915101309152018091B0
:101060004F0190915001982F8827822B932B21C0FC
:101070008091510190915201209151013091520182
:10108000892F99272095309533278217930709F4E4
:101090000BC0809151019091520188278115914D8B
:1010A00069F48BE080935501809151019091520138
:1010B0009927909352018093510106C080E01092CD
:1010C0005601089580E008958091550180838091B4
:1010D00053019091540192838183809151019091A9
:1010E00052019483838380914E0185831092520133
:1010F00010925101109254011092530110924E011E
:1011000081E0DDCF83B1909156019111E9C38074E4
:1011100090915701911130C090915801811104C0F4
:101120009F5F90935801DCC39923B9F081E08093CD
:1011300057018093590110925A0110925C0110924C
:101140005B0110925E0110925D019FEF90935F0131
:101150008093600110926101C3C3809162019091FC
:1011600063018F3F2FEF920709F4BAC30196909362
:10117000630180936201B4C390915901992309F4EA
:1011800019C1882349F0809160018F5F80936001CD
:10119000863A08F497C2BCC120915801822F85512C
:1011A000873048F48091600190E0843091051CF014
:1011B00008970CF4A7C0822F85538B3488F4809154
:1011C000600190E08A3191052CF0813491050CF496
:1011D0009CC003C08C3091051CF081970CF498C022
:1011E000822F87528C3048F48091600190E08732E2
:1011F00091051CF0C3970CF48EC0822F8B51813166
:1012000048F48091600190E08B3191051CF08C973F
:101210000CF484C0822F8D518A3048F48091600193
:1012200090E08E3091051CF045970CF47AC0822F27
:101230008750853018F087508930E8F4809160013C
:10124000982F9750953018F097509930A0F48093CC
:1012500064012C502B3018F08C508B3030F41092ED
:10126000650180E48093610103C081E080936501A2
:101270006EEA71E05EC0822F8150843058F4809114
:101280006001982F9051973008F44EC086508530F9
:1012900008F44AC0822F8751883078F48091600129
:1012A00090E0873091054CF00C973CF4109264016B
:1012B0001092650160ED71E03CC0822F8A50883049
:1012C00040F48091600190E08230910514F006971F
:1012D00074F12350253088F420916001822F90E032
:1012E0008631910554F0829744F42093640181E0A3
:1012F0008093650162EF71E01CC01092570160E0BD
:1013000070E017C068E471E014C069E571E011C0D5
:101310006AE671E00EC06BE771E00BC06CE871E04B
:1013200008C06DE971E005C06FEB71E002C061EECD
:1013300071E080915701882331F041E150E086E669
:1013400091E00E944B1610925F018091760190917E
:10135000660180FF1BC0993029F140916001209106
:101360006801241760F450E030E0220F331F241787
:1013700035072CF08695817091E0892711C09091F6
:10138000650191110FC0869581700AC0983051F4A3
:10139000809160018051873010F481E001C080E0CD
:1013A0000E948C0781E08093580110926001109296
:1013B000590188C190915A01992309F476C1882373
:1013C00009F491C260915F0180917301681313C0A9
:1013D00090917401913079F48091580190916B0152
:1013E000891708F495C090916C01981708F490C083
:1013F0001092740167C1909160019F5F90936001AA
:10140000209166012130B9F4492F50E0493051054F
:101410000CF44DC06B3008F44AC0862F8F5F809368
:10142000730180917101860F8F5F8093720187E055
:101430008093600158C22F30D1F5209174012111A1
:1014400036C080916A01292F30E090E0880F991F03
:10145000821793073CF4683008F434C18AE0809323
:10146000730140C06A3008F42DC180E180936601A9
:1014700089E080936F0191E19093700191E09093E6
:1014800071018093720180915B0190915C019C01DC
:1014900022273370232B09F415C190935D0110921C
:1014A0005E01992790935C0180935B010BC12091B1
:1014B000760120FF1BC020916A01492F50E030E0E7
:1014C000220F331F241735078CF4462F50E0282FA6
:1014D00030E0225031094217530744F02091740143
:1014E000211104C081E080937401FDC1963A08F493
:1014F000E9C0262F30E090E001972817390741F422
:1015000080917401811104C06F5F60935F01DAC044
:10151000109257011092580110926001D3C0993077
:10152000C9F490915F019330A8F0963098F48091BF
:10153000580190E00C9744F08091600190E00C9786
:101540001CF081E00E948C0780E00E948C071092C2
:10155000650146C090915801609168016917E0F4F7
:10156000492F50E0262F30E0220F331F2417350774
:101570009CF08695817091E089270E948C0780916C
:101580007601869581700E948C0780917601869500
:1015900081708093650124C0809167019817E0F005
:1015A0006917D0F02091640180916A01821778F464
:1015B00030E090E0880F991F8217930744F081E094
:1015C00090916501911180E08093650102C0809146
:1015D00065010E948C0704C01092570110926001AF
:1015E000809160018093640143C0809158019330E1
:1015F00051F590915F01903131F58350863008F0BC
:101600004EC020916001822F90E08732910564F0F6
:10161000C39754F410925A011092780110927701F6
:1016200081E180935F013FC08AE08093660180E1A1
:101630008093710180E2809372018093730129503D
:101640002C3058F512C0909167018917A0F0909145
:101650006801981780F090916001209169019217BC
:1016600050F020916A01291730F081E00E948C0728
:1016700010925A0118C090916B01891780F09091D7
:101680006C01981760F08091600190916D0189174D
:1016900030F090916E01981710F080E0E7CF109233
:1016A00057011092600181E005C0811106C0809150
:1016B00058018F5F8093580105C081E080935A01E3
:1016C0008093600180915701882309F409C16091DA
:1016D0005F0180917301681303C1809174018111CE
:1016E000FFC0409101015091020180915B019091F6
:1016F0005C014817590769F4209162013091630138
:10170000243F314030F4209179012F5F20937901FB
:1017100002C010927901E0916601E13031F420912C
:1017200079012150223078F409C0EA3009F402C06E
:10173000ED3049F42091790120FF05C0109263013A
:10174000109262018DC021E020935601E83029F506
:101750009C0120953095337060917A0170917B01E6
:101760002617370799F430935C0120935B01E093CF
:10177000550180915D0190915E0190935401809399
:10178000530130935201209351016AC010925601C7
:1017900090937B0180937A0163C0EF3021F48F3FF7
:1017A000914099F50CC0E03169F420915D013091D0
:1017B0005E012F3F310549F58E3F910531F51092BD
:1017C00056014EC0E23009F561111FC080916201DF
:1017D00090916301803B9440B0F48091030190911B
:1017E000040190935E0180935D0150935C014093EE
:1017F0005B0180914E01816080934E0110926301E4
:101800001092620102C010925601E093550180913E
:101810005D0190915E0190935401809353019093E8
:10182000040180930301E73059F420916101809114
:101830005B0190915C01822B90935C0180935B0132
:1018400080915B0190915C019093520180935101D2
:1018500080917701909178019093500180934F018E
:1018600080915601882391F180915101909152010C
:1018700048175907B9F48091530190915401209170
:101880000301309104012817390761F48091620146
:10189000909163018C3D954028F480914E018160C8
:1018A00080934E0180915D0190915E0190930401BF
:1018B0008093030180915B0190915C019093020100
:1018C00080930101109263011092620110925701FE
:1018D00010925C0110925B0110925801109260010D
:1018E000809156010895809176019091660180FD66
:1018F00016CE7BCECF93DF931F92CDB7DEB780E6B7
:1019000080937C0085E880937A0080917A008064DF
:1019100080937A0080917A0086FDFCCF80917900D7
:10192000898380E090E02981FC01E258FE4F20830A
:10193000019680319105B9F7898190E090937D01FE
:1019400080937C0180917C0190917D0124E0880F3F
:10195000991F2A95E1F790937D0180937C018091F6
:101960007A00806480937A000F90DF91CF91089580
:1019700080917C0190917D0134E0969587953A9510
:10198000E1F78095089580917A0086FD28C0309116
:10199000790080917C0190917D0120918E01E22F50
:1019A000F0E0E258FE4F4081841B910990937D0145
:1019B00080937C01308380917C0190917D01830F25
:1019C000911D90937D0180937C01822F8F5F8F709A
:1019D00080938E0180917A00806480937A000895CC
:1019E00080918F018F5F80938F010895809199017D
:1019F000811112C0E0910C0280919A01E80FE0324F
:101A00000CF0EFE1E7FDE0E0FF27E7FDF095ED5F8B
:101A1000FD4FE491E0939B0180919B018095809321
:101A2000B4000895CF93C62FC81BC23058F1E82FD9
:101A3000F0E0E652FE4F43A9552747FD5095342F5D
:101A4000222720583F4FA62FB0E0A652BE4FD39674
:101A50008C91992787FD9095841B950B982F6C2F5F
:101A600080E070E00E94231680E090E0260F371F90
:101A7000DF01A80FB91FD4963C930196482F4F5F02
:101A80004C17A0F3CF9108955B98539A83E080930D
:101A9000B00084E08093B1000895E0EBF0E0808135
:101AA0008063808381E0809398010C94F60C5B98AE
:101AB000E0EBF0E080818F7C8083109298010895A4
:101AC0008091980181110C94570D0E944D0D0C943A
:101AD000F60C803208F08FE180939C01E82FF0E053
:101AE000E652FE4F83A980939A010C94F60C8091E4
:101AF0009801882389F020910C0230919A01822F5D
:101B0000992787FD9095830F911D4F972CF42F5F98
:101B100020930C020C94F60C089580919801882370
:101B200091F020910C0230919A01822F992787FD24
:101B30009095830F911D181619062CF421502093AF
:101B40000C020C94F60C089591E090939901809307
:101B50009B010C94F60C109299010C94F60C2F92A8
:101B60003F924F925F926F927F928F929F92AF922D
:101B7000BF92CF92DF92EF92FF920F931F93CF937A
:101B8000DF9380910C02882309F40DC1C0919A0162
:101B9000C80FC03208F0C0E2D0919C01ED2FF0E0F8
:101BA000DF01A652BE4FD396CC93CF01019701E03F
:101BB00010E020E030E004C0000F111F221F331F8F
:101BC0008A95D2F740912D0250912E0260912F02FA
:101BD000709130027D2E7A94812C912C5401839443
:101BE000DD23A1F0972D6801790105C0F694E794F3
:101BF000D794C794915016012701242235224622FA
:101C0000572223282428252889F301C090E0492E53
:101C1000512CBAEDEB2EB1E0FB2EE40CF51CD701F4
:101C2000D3968C91C817D8F040932D0250932E0272
:101C300060932F02709330023196C12CD12C760123
:101C4000C39404C0CC0CDD1CEE1CFF1CEA95D2F73B
:101C50008D2F8F5F812C912C5401839418C0D70154
:101C6000D396CC93992309F4BBCFD501C40104C00A
:101C7000880F991FAA1FBB1F4A94D2F78095909591
:101C8000A095B095482359236A237B23A9CFDF3140
:101C9000A0F4782E9701860105C0000F111F221FA6
:101CA000331F73941801290124223522462257221A
:101CB00023282428252889F302C02FE1722E072D1E
:101CC00010E0F801E652FE4F23A92C17C0F4C3AB75
:101CD000BEE1B715E0F22401350104C0440C551CE7
:101CE000661C771C0A95D2F7930182010095109526
:101CF000209530954023512362237323C8CF40930E
:101D00002D0250932E0260932F02709330026D2F9C
:101D1000892F0E94120D672D8D2F0E94120D41E018
:101D200050E060E070E004C0440F551F661F771F4D
:101D3000DA95D2F780912D0290912E02A0912F0278
:101D4000B0913002482B592B6A2B7B2B40932D02EC
:101D500050932E0260932F0270933002C0939A0129
:101D600010920C020E94F60C0E94600D2FEF84E38B
:101D70009CE0215080409040E1F700C00000DF91DE
:101D8000CF911F910F91FF90EF90DF90CF90BF9078
:101D9000AF909F908F907F906F905F904F903F900B
:101DA0002F900C94600DDF91CF911F910F91FF90B8
:101DB000EF90DF90CF90BF90AF909F908F907F90EB
:101DC0006F905F904F903F902F900895462FBB27C4
:101DD000A92F982F872F292F33272EBD0DB407FE4B
:101DE000FDCF8EBD0DB407FEFDCF4EBD0DB407FE79
:101DF000FDCF2A982A9A089584B18C6284B92498D8
:101E000085B1846185B988E58CBD8DB581608DBD56
:101E100060E070E0CB010C94E60E8FE193E09093CC
:101E200087008093860082E08093800089E1809320
:101E3000810080E280936F0008951F920F920FB689
:101E40000F9211242F933F934F935F936F937F9340
:101E50008F939F93AF93BF93EF93FF930E9482085A
:101E600080919D018F5F80939D018A30A1F5109232
:101E70009D0180919E018F5F80939E018A3059F56C
:101E800010929E010E94E5010E949A1480919F0188
:101E90008F5F80939F018A30F1F410929F010E941E
:101EA000BB140E942C048091A0018F5F8093A0013D
:101EB0008A3089F41092A0010E94F00C0E94C30C99
:101EC0000E94D2148091A1018F5F8093A1018C3375
:101ED00011F41092A101FF91EF91BF91AF919F91E9
:101EE0008F917F916F915F914F913F912F910F90C3
:101EF0000FBE0F901F901895E1ECF0E08081886094
:101F000080831092C50083E38093C400089590916C
:101F1000C00095FFFCCF8093C6000895CF93DF9358
:101F2000EC0102C00E94870F89918111FBCFDF91E4
:101F3000CF910895CF93DF93EC0102C00E94870FE9
:101F4000FE01219684918111F9CFDF91CF910895FF
:101F50000F931F936CE00E94171684E0989FF00186
:101F60001124E859FF4F0591159125913491B8013D
:101F7000C9011F910F910895CF92DF92EF92FF92C6
:101F80000F931F93CF93DF931F92CDB7DEB7F090DF
:101F9000A301FA94A091BC01B091C5011091CF01A9
:101FA00040E050E0EE24E3946F2D772767FD7095B5
:101FB0006C557E4F1BC0FB01E40FF51F90819130E3
:101FC00031F0953031F09430C1F5912F03C09A2F44
:101FD00001C09B2FEE2029F0911103C021E030E0D9
:101FE00002C020E030E0E22E415051099F2D940FB5
:101FF00098170CF7E11014C023C0F801EC0DFD1D7B
:102000009081933021F489830E94AB0D8981909156
:10201000A30191509093A30191E0C91AD10808C07F
:10202000C12CD12C0F2D112707FD10950C551E4FDB
:102030009C2D9F0D98170CF703C0E110CFCFD1CF87
:102040008E2D0F90DF91CF911F910F91FF90EF9008
:10205000DF90CF900895CF93DF9300D000D0CDB71D
:10206000DEB79A01AB0129833A834B835C830E94DC
:10207000BE0429813A814B815C810F900F900F90B3
:102080000F90DF91CF910C943003CF93DF93CDB7B6
:10209000DEB727970FB6F894DEBF0FBECDBF909185
:1020A000A301292F332727FD3095992331F0D9013A
:1020B000AD55BE4F4C91481761F0F901EC55FE4FFC
:1020C0008083A82FB0E0AC54BE4F9C939F5F909349
:1020D000A3018630F1F497E0FB01ADEBB1E0019094
:1020E0000D929A95E1F71092C40181E08093BC01B2
:1020F0008091C00188508C3010F48FEF01C082E3D2
:102100000E94A40D44E05FEF66EF70E08DEB91E07C
:1021100007C0813041F440E050E0BA0188EC91E022
:102120000E942B103DC08530C1F4AE014F5F5F4F60
:1021300087E0FA0111928A95E9F7809103028C8376
:10214000809104028D831092C60166E085E00E94B2
:10215000D91081E08093C50123C0843049F448EC54
:1021600051E066E00E94D91081E08093CF0118C051
:10217000873051F48AE08093D001862F0E94A80F07
:1021800020E030E0A9010AC081110AC020E030E05F
:1021900049E053E060E070E089E093E00E943003A2
:1021A00027960FB6F894DEBF0FBECDBFDF91CF915B
:1021B00008951F93CF93DF93162FEA018F3F49F0C5
:1021C000E82FFF27E7FDF095EC54FE4F80818F5FED
:1021D00001C080E09091A301891307C0BE01812F47
:1021E000DF91CF911F910C9445100E94BC0F81117B
:1021F000F5CFDF91CF911F910895FF920F931F9319
:10220000CF93DF93CDB7DEB728970FB6F894DEBF34
:102210000FBECDBF282F8B01E82FF0E0EC54FE4F0E
:10222000F0808F2D28870E94BC0F40E050E0BA015B
:1022300088EC91E00E942B10EF2DFF27E7FDF09531
:10224000ED55FE4F80812885853009F04DC0263040
:1022500009F060C087E0F801DE01119601900D924F
:102260008A95E1F78091C601A82FB0E0FD01EE0F3D
:10227000FF1FE652FE4F9C8191A7AA0FBB1FAC5FC8
:10228000BD4F9D819C93E82FEF5FE093C601E23044
:10229000A1F4809107028F5F0E94A80F9B01AC01FF
:1022A0000E94300380910702882321F081E080930F
:1022B000C70130C01092C7012DC0F0E0DF01AA0FA6
:1022C000BB1FA652BE4F99968C918C83EE0FFF1FB9
:1022D000EC5FFD4F80818D83AE014F5F5F4F66E005
:1022E00085E00E94D91016C08430A1F4263091F404
:1022F000C8010E94550687E0F801A8ECB1E0019002
:102300000D928A95E1F71092CF0160E070E084E0D1
:102310000E94FD1028960FB6F894DEBF0FBECDBF09
:10232000DF91CF911F910F91FF900895E091B70138
:10233000F0E0ED55FE4F823011F58091D5018F5FB1
:102340008093D501853068F161E070E080E090E035
:102350000090D40104C0660F771F881F991F0A944C
:10236000D2F720E030E0A9010E9430038091D4012F
:102370008F5F8F718093D4011092D50108958730BB
:1023800061F48091D00181508093D001811109C006
:1023900060E070E087E00C94FD10833011F48081E0
:1023A000CACF089580910A0260E070E08F770E94A2
:1023B000451080910A0287FF05C060E070E083E06D
:1023C0000E94451060E070E080E00C94451000979A
:1023D00009F457C027E0FC01A8ECB1E001900D9290
:1023E0002A95E1F78091B0018A3008F44AC07091D3
:1023F000060240910502509104023091030220919F
:10240000CB016091CC01321738F0231308C081E072
:1024100090E0651730F403C081E090E002C080E0F6
:1024200090E0582F241738F0241719F080E090E03E
:1024300004C06717D8F781E090E0282F431750F0C9
:10244000511101C004C081E090E0211109C080E079
:1024500090E006C0552319F081E090E001C0992773
:102460009091AE01811137C033C00E944D0D09C05B
:1024700082E08093AE0180910702811102C00E9428
:10248000570DE091A301FF27E7FDF095ED55FE4FB5
:102490002081222379F0273069F0223059F024304E
:1024A00049F081E090E0253039F0263029F080E0D5
:1024B00090E002C081E090E0811110C08091AE01F7
:1024C000823061F088EC91E00E94BE040C945C03C1
:1024D000933059F6D6CF992359F2D3CF08958F92DE
:1024E0009F92AF92BF92CF92DF92EF92FF920F93A3
:1024F0001F93CF93DF93CDB7DEB727970FB6F8942E
:10250000DEBF0FBECDBFCE0101960E940508882315
:1025100009F4EFC18091A2018111F9C183E0809398
:10252000A201A090A301EA2DFF27E7FDF095ED554C
:10253000FE4F20818A819B8121113BC04091B301D4
:10254000442311F12091DA013091DB01281739077A
:1025500029F5E42FF0E0EE0FFF1FE652FE4F8C81CD
:102560009D81918380834D3059F461E38AED91E040
:102570000E94301560E070E080E00E94FD10C7C14D
:102580004F5F4093B3010AC02FEF2093B2019093A5
:10259000DB018093DA0181E08093B3018091B30184
:1025A0000E94A80F896093609B01AC010E943003D8
:1025B000AEC12091DA013091DB012817390709F00B
:1025C000A6C18C819D81ECEDF1E010E003C01F5F9E
:1025D0001D3029F12191319128173907C1F71111C7
:1025E0001EC08091AE01823030F483E08093AE0152
:1025F0000E94570D0EC0833019F41092AE0103C033
:1026000081E08093AE010E944D0D80E090E00E9439
:10261000E71169E58AED91E00E9430155AC1AA944C
:10262000133011F401E001C00FEF8FE0089F902CF0
:102630001124C12CD12C80E0EA2CFF24E7FCF0947B
:1026400024EA31E0E20EF31E312F33503F83BB24E6
:10265000B39447E1842ECBC0F701EC0DFD1D8081C2
:10266000863009F07FC0E091BA01F0E0ED55FE4FF1
:102670008081843019F41530C9F404C08530B1F478
:102680001630A1F48091C401811103C0B092C4013D
:1026900054C0813009F051C01092C2011092BC01A7
:1026A0000E94AB0D6DEB71E086E099C06F816230E6
:1026B00008F043C09091C40191111EC00F3F39F43E
:1026C0008091C001811103C08092C0010AC0809135
:1026D000C001800F883118F48093C00102C01092AD
:1026E000C0018091C00188508C3010F48FEF01C080
:1026F00082E30E94A40D21C09130F9F4853011F0DD
:10270000402F01C0492D47FF0FC02091C10130E08B
:10271000642F772761950CF470952617370724F4FA
:10272000445C4093C10109C08091C101840F809332
:10273000C1018C3310F01092C1018091C40181114C
:1027400005C084E09FEFA4EFB0E004C08BEF90E001
:10275000A9E0BBE0AC01BD0162608DEB91E00E949D
:102760002B10D2C08130F1F1833079F47F81723047
:10277000C8F580910802133009F0C3C0BEC0815073
:1027800001C08F5F80930802BFC0853059F58091EA
:10279000C601823009F0B8C08F818230B0F48091D8
:1027A00007028B25809307028F5F0E94A80F9B0171
:1027B000AC010E94300380910702882319F0B09287
:1027C000C701A2C01092C7019FC0163009F09CC07B
:1027D0001092C5011092C70160E070E085E00E9490
:1027E000FD1092C080E090E091E0C91AD1089A2DC6
:1027F0009C0D97FD04C0882309F42ECF6AC0811177
:1028000068C0113019F40E94770D63C0123019F4BA
:102810000E948D0D5EC0183039F441E050E061E057
:102820008FEF0E94D91055C0153021F460E070E0A0
:1028300084E018C0163021F460E070E085E012C03A
:102840001A3099F4E091A301FF27E7FDF095ED55CB
:10285000FE4F808160E070E0823019F40E94FD102C
:1028600038C082E00E94451034C01B3019F40E9429
:10287000AF0D2FC01930A9F48091A301E82FFF27D5
:10288000E7FDF095ED55FE4F9081933021F4815096
:102890000E94BC0F1EC09130E1F460E070E083E064
:1028A000E1CF1C3089F460910B026F5F6770609319
:1028B0000B0270E06F5F7F4F87E00E94451080E061
:1028C00090E00E94E71105C0173009F581E0809380
:1028D000D6018091A40180930A029091A5019330C2
:1028E00019F4806880930A021092AF011092B0012F
:1028F0000EC08DE08093B1010AC0823008F03FCF56
:1029000003C0853008F43DCF81E090E06DCF27967D
:102910000FB6F894DEBF0FBECDBFDF91CF911F91F0
:102920000F91FF90EF90DF90CF90BF90AF909F906E
:102930008F900895E091A301FF27E7FDF095ED55F5
:10294000FE4F80818330B1F48091D2018F5F8093FC
:10295000D20190910802891768F08091D1010E94FC
:102960005F150E94A40D8091D1018F5F8093D101EA
:102970001092D2010895E091A301FF27E7FDF095A1
:10298000ED55FE4F80810E9496118091A20188230F
:1029900019F081508093A2018091D3018F5F8093C1
:1029A000D30108951092D9018091AF01893718F4AD
:1029B0008F5F8093AF018091B0018B3018F48F5FEF
:1029C0008093B0018091AF01883729F469E58AEDE1
:1029D00091E00E9430158091AE018230E1F080914B
:1029E000C701811118C0E091A301FF27E7FDF09511
:1029F000ED55FE4F8081811119C08091B2018F3F4A
:102A0000A9F08F5F8093B201873081F460E070E0BD
:102A100080E00C94FD1080910702882339F08091AA
:102A2000C7010E94930481E08093D901089549E58C
:102A300050E060E070E08AED91E00E9454168091D1
:102A400031028C3021F480913202893541F049E520
:102A500050E063E272E08AED91E00C944B16089529
:102A6000CF92DF92EF92FF920F931F93CF93DF935A
:102A7000D62E8A5D9140C82EDA94D80EC0E0D0E000
:102A800011C0F12C870100501040C8010E9464164B
:102A9000F701E652FE4F6081861719F0C8010E94C7
:102AA0006C162196EC2EEC0CDE1458F7DF91CF91CA
:102AB0001F910F91FF90EF90DF90CF900895805875
:102AC00087FD809590E080589F4F889FA001899F47
:102AD000500D500D1124452F5527489F9001499FB7
:102AE000300D589F300D1124832F0895CF93DF931D
:102AF00000D0CDB7DEB70E947C0F0E9417150E9450
:102B0000D6010E946204BE016F5F7F4FCE01029624
:102B10000E943D070E947A0C0E94440D0E94020808
:102B20000E940D0F0E94D21178940E944D0D01E079
:102B30000E94B80C182F16951695169580910501D0
:102B4000811729F0812F0E94690D10930501809152
:102B50008F0190910601981709F453C090918F014D
:102B600080919701981740F080E991E00E94F1066A
:102B7000882309F446C004C080918F018093950199
:102B80009091070180919401981791F080E991E06C
:102B90000E94E71180919401809307018091930135
:102BA00090910801981721F00093D60180930801B5
:102BB000809106018F3F51F080918F019091950196
:102BC000981720F480918F01891B01C080E09091BB
:102BD000950190938F0190930601882339F090918D
:102BE0008F01915F981B9093970105C080918F0191
:102BF000815F80939701809197018C3310F0109240
:102C000097010E946F1280E991E00E945E02882382
:102C100009F48ECF80E991E00E94550680919501DC
:102C200080938F0180E991E00E94E71181CF991B89
:102C300079E004C0991F961708F0961B881F7A95B3
:102C4000C9F78095089597FB072E16F4009407D0D6
:102C500077FD09D00E94371607FC05D03EF4909509
:102C600081959F4F0895709561957F4F0895AA1B98
:102C7000BB1B51E107C0AA1FBB1FA617B70710F067
:102C8000A61BB70B881F991F5A95A9F78095909599
:102C9000BC01CD010895FB01DC0102C005900D923D
:102CA00041505040D8F70895DC01CB01FC01F9995F
:102CB000FECF06C0F2BDE1BDF89A319600B40D9288
:102CC00041505040B8F70895F999FECF92BD81BDAB
:102CD000F89A992780B50895262FF999FECF1FBA43
:102CE00092BD81BD20BD0FB6F894FA9AF99A0FBE35
:082CF00001960895F894FFCF4E
:102CF80007FFFFFFFFFFFFFFFF010204080A142878
:102D0800500000000200000001000001000000085F
:0A2D180000F00FE00FF80FE80F00C5
:00000001FF
